{
  "_format": "hh-sol-artifact-1",
  "contractName": "AgentDAO",
  "sourceName": "contracts/AgentDAO.sol",
  "abi": [
    {
      "inputs": [
        {
          "internalType": "string",
          "name": "name",
          "type": "string"
        },
        {
          "internalType": "string",
          "name": "symbol",
          "type": "string"
        },
        {
          "internalType": "string",
          "name": "_manifesto",
          "type": "string"
        },
        {
          "internalType": "address",
          "name": "_owner",
          "type": "address"
        }
      ],
      "stateMutability": "nonpayable",
      "type": "constructor"
    },
    {
      "inputs": [
        {
          "internalType": "address",
          "name": "spender",
          "type": "address"
        },
        {
          "internalType": "uint256",
          "name": "allowance",
          "type": "uint256"
        },
        {
          "internalType": "uint256",
          "name": "needed",
          "type": "uint256"
        }
      ],
      "name": "ERC20InsufficientAllowance",
      "type": "error"
    },
    {
      "inputs": [
        {
          "internalType": "address",
          "name": "sender",
          "type": "address"
        },
        {
          "internalType": "uint256",
          "name": "balance",
          "type": "uint256"
        },
        {
          "internalType": "uint256",
          "name": "needed",
          "type": "uint256"
        }
      ],
      "name": "ERC20InsufficientBalance",
      "type": "error"
    },
    {
      "inputs": [
        {
          "internalType": "address",
          "name": "approver",
          "type": "address"
        }
      ],
      "name": "ERC20InvalidApprover",
      "type": "error"
    },
    {
      "inputs": [
        {
          "internalType": "address",
          "name": "receiver",
          "type": "address"
        }
      ],
      "name": "ERC20InvalidReceiver",
      "type": "error"
    },
    {
      "inputs": [
        {
          "internalType": "address",
          "name": "sender",
          "type": "address"
        }
      ],
      "name": "ERC20InvalidSender",
      "type": "error"
    },
    {
      "inputs": [
        {
          "internalType": "address",
          "name": "spender",
          "type": "address"
        }
      ],
      "name": "ERC20InvalidSpender",
      "type": "error"
    },
    {
      "inputs": [
        {
          "internalType": "address",
          "name": "owner",
          "type": "address"
        }
      ],
      "name": "OwnableInvalidOwner",
      "type": "error"
    },
    {
      "inputs": [
        {
          "internalType": "address",
          "name": "account",
          "type": "address"
        }
      ],
      "name": "OwnableUnauthorizedAccount",
      "type": "error"
    },
    {
      "anonymous": false,
      "inputs": [
        {
          "indexed": true,
          "internalType": "address",
          "name": "owner",
          "type": "address"
        },
        {
          "indexed": true,
          "internalType": "address",
          "name": "spender",
          "type": "address"
        },
        {
          "indexed": false,
          "internalType": "uint256",
          "name": "value",
          "type": "uint256"
        }
      ],
      "name": "Approval",
      "type": "event"
    },
    {
      "anonymous": false,
      "inputs": [
        {
          "indexed": true,
          "internalType": "address",
          "name": "previousOwner",
          "type": "address"
        },
        {
          "indexed": true,
          "internalType": "address",
          "name": "newOwner",
          "type": "address"
        }
      ],
      "name": "OwnershipTransferred",
      "type": "event"
    },
    {
      "anonymous": false,
      "inputs": [
        {
          "indexed": true,
          "internalType": "address",
          "name": "from",
          "type": "address"
        },
        {
          "indexed": true,
          "internalType": "address",
          "name": "to",
          "type": "address"
        },
        {
          "indexed": false,
          "internalType": "uint256",
          "name": "value",
          "type": "uint256"
        }
      ],
      "name": "Transfer",
      "type": "event"
    },
    {
      "inputs": [
        {
          "internalType": "address",
          "name": "owner",
          "type": "address"
        },
        {
          "internalType": "address",
          "name": "spender",
          "type": "address"
        }
      ],
      "name": "allowance",
      "outputs": [
        {
          "internalType": "uint256",
          "name": "",
          "type": "uint256"
        }
      ],
      "stateMutability": "view",
      "type": "function"
    },
    {
      "inputs": [
        {
          "internalType": "address",
          "name": "spender",
          "type": "address"
        },
        {
          "internalType": "uint256",
          "name": "value",
          "type": "uint256"
        }
      ],
      "name": "approve",
      "outputs": [
        {
          "internalType": "bool",
          "name": "",
          "type": "bool"
        }
      ],
      "stateMutability": "nonpayable",
      "type": "function"
    },
    {
      "inputs": [
        {
          "internalType": "address",
          "name": "account",
          "type": "address"
        }
      ],
      "name": "balanceOf",
      "outputs": [
        {
          "internalType": "uint256",
          "name": "",
          "type": "uint256"
        }
      ],
      "stateMutability": "view",
      "type": "function"
    },
    {
      "inputs": [
        {
          "internalType": "uint256",
          "name": "amount",
          "type": "uint256"
        }
      ],
      "name": "burn",
      "outputs": [],
      "stateMutability": "nonpayable",
      "type": "function"
    },
    {
      "inputs": [],
      "name": "decimals",
      "outputs": [
        {
          "internalType": "uint8",
          "name": "",
          "type": "uint8"
        }
      ],
      "stateMutability": "view",
      "type": "function"
    },
    {
      "inputs": [],
      "name": "manifesto",
      "outputs": [
        {
          "internalType": "string",
          "name": "",
          "type": "string"
        }
      ],
      "stateMutability": "view",
      "type": "function"
    },
    {
      "inputs": [
        {
          "internalType": "address",
          "name": "to",
          "type": "address"
        },
        {
          "internalType": "uint256",
          "name": "amount",
          "type": "uint256"
        }
      ],
      "name": "mint",
      "outputs": [],
      "stateMutability": "nonpayable",
      "type": "function"
    },
    {
      "inputs": [],
      "name": "name",
      "outputs": [
        {
          "internalType": "string",
          "name": "",
          "type": "string"
        }
      ],
      "stateMutability": "view",
      "type": "function"
    },
    {
      "inputs": [],
      "name": "owner",
      "outputs": [
        {
          "internalType": "address",
          "name": "",
          "type": "address"
        }
      ],
      "stateMutability": "view",
      "type": "function"
    },
    {
      "inputs": [],
      "name": "renounceOwnership",
      "outputs": [],
      "stateMutability": "nonpayable",
      "type": "function"
    },
    {
      "inputs": [],
      "name": "symbol",
      "outputs": [
        {
          "internalType": "string",
          "name": "",
          "type": "string"
        }
      ],
      "stateMutability": "view",
      "type": "function"
    },
    {
      "inputs": [],
      "name": "totalSupply",
      "outputs": [
        {
          "internalType": "uint256",
          "name": "",
          "type": "uint256"
        }
      ],
      "stateMutability": "view",
      "type": "function"
    },
    {
      "inputs": [
        {
          "internalType": "address",
          "name": "to",
          "type": "address"
        },
        {
          "internalType": "uint256",
          "name": "value",
          "type": "uint256"
        }
      ],
      "name": "transfer",
      "outputs": [
        {
          "internalType": "bool",
          "name": "",
          "type": "bool"
        }
      ],
      "stateMutability": "nonpayable",
      "type": "function"
    },
    {
      "inputs": [
        {
          "internalType": "address",
          "name": "from",
          "type": "address"
        },
        {
          "internalType": "address",
          "name": "to",
          "type": "address"
        },
        {
          "internalType": "uint256",
          "name": "value",
          "type": "uint256"
        }
      ],
      "name": "transferFrom",
      "outputs": [
        {
          "internalType": "bool",
          "name": "",
          "type": "bool"
        }
      ],
      "stateMutability": "nonpayable",
      "type": "function"
    },
    {
      "inputs": [
        {
          "internalType": "address",
          "name": "newOwner",
          "type": "address"
        }
      ],
      "name": "transferOwnership",
      "outputs": [],
      "stateMutability": "nonpayable",
      "type": "function"
    },
    {
      "inputs": [
        {
          "internalType": "string",
          "name": "_manifesto",
          "type": "string"
        }
      ],
      "name": "updateManifesto",
      "outputs": [],
      "stateMutability": "nonpayable",
      "type": "function"
    }
  ],
  "bytecode": "0x60806040523480156200001157600080fd5b50604051620012db380380620012db83398101604081905262000034916200035f565b8084846003620000458382620004a3565b506004620000548282620004a3565b5050506001600160a01b0381166200008757604051631e4fbdf760e01b8152600060048201526024015b60405180910390fd5b6200009281620000d4565b506006620000a18382620004a3565b50620000ca81620000b56012600a62000684565b620000c490620186a06200069c565b62000126565b50505050620006cc565b600580546001600160a01b038381166001600160a01b0319831681179093556040519116919082907f8be0079c531659141344cd1fd0a4f28419497f9722a3daafe3b4186f6b6457e090600090a35050565b6001600160a01b038216620001525760405163ec442f0560e01b8152600060048201526024016200007e565b620001606000838362000164565b5050565b6001600160a01b03831662000193578060026000828254620001879190620006b6565b90915550620002079050565b6001600160a01b03831660009081526020819052604090205481811015620001e85760405163391434e360e21b81526001600160a01b038516600482015260248101829052604481018390526064016200007e565b6001600160a01b03841660009081526020819052604090209082900390555b6001600160a01b038216620002255760028054829003905562000244565b6001600160a01b03821660009081526020819052604090208054820190555b816001600160a01b0316836001600160a01b03167fddf252ad1be2c89b69c2b068fc378daa952ba7f163c4a11628f55a4df523b3ef836040516200028a91815260200190565b60405180910390a3505050565b634e487b7160e01b600052604160045260246000fd5b600082601f830112620002bf57600080fd5b81516001600160401b0380821115620002dc57620002dc62000297565b604051601f8301601f19908116603f0116810190828211818310171562000307576200030762000297565b81604052838152602092508660208588010111156200032557600080fd5b600091505b838210156200034957858201830151818301840152908201906200032a565b6000602085830101528094505050505092915050565b600080600080608085870312156200037657600080fd5b84516001600160401b03808211156200038e57600080fd5b6200039c88838901620002ad565b95506020870151915080821115620003b357600080fd5b620003c188838901620002ad565b94506040870151915080821115620003d857600080fd5b50620003e787828801620002ad565b606087015190935090506001600160a01b03811681146200040757600080fd5b939692955090935050565b600181811c908216806200042757607f821691505b6020821081036200044857634e487b7160e01b600052602260045260246000fd5b50919050565b601f8211156200049e576000816000526020600020601f850160051c81016020861015620004795750805b601f850160051c820191505b818110156200049a5782815560010162000485565b5050505b505050565b81516001600160401b03811115620004bf57620004bf62000297565b620004d781620004d0845462000412565b846200044e565b602080601f8311600181146200050f5760008415620004f65750858301515b600019600386901b1c1916600185901b1785556200049a565b600085815260208120601f198616915b8281101562000540578886015182559484019460019091019084016200051f565b50858210156200055f5787850151600019600388901b60f8161c191681555b5050505050600190811b01905550565b634e487b7160e01b600052601160045260246000fd5b600181815b80851115620005c6578160001904821115620005aa57620005aa6200056f565b80851615620005b857918102915b93841c93908002906200058a565b509250929050565b600082620005df575060016200067e565b81620005ee575060006200067e565b8160018114620006075760028114620006125762000632565b60019150506200067e565b60ff8411156200062657620006266200056f565b50506001821b6200067e565b5060208310610133831016604e8410600b841016171562000657575081810a6200067e565b62000663838362000585565b80600019048211156200067a576200067a6200056f565b0290505b92915050565b60006200069560ff841683620005ce565b9392505050565b80820281158282048414176200067e576200067e6200056f565b808201808211156200067e576200067e6200056f565b610bff80620006dc6000396000f3fe608060405234801561001057600080fd5b50600436106101005760003560e01c8063715018a611610097578063bdb01a3811610066578063bdb01a3814610209578063dd62ed3e1461021c578063e2f3dce014610255578063f2fde38b1461025d57600080fd5b8063715018a6146101cb5780638da5cb5b146101d357806395d89b41146101ee578063a9059cbb146101f657600080fd5b8063313ce567116100d3578063313ce5671461016b57806340c10f191461017a57806342966c681461018f57806370a08231146101a257600080fd5b806306fdde0314610105578063095ea7b31461012357806318160ddd1461014657806323b872dd14610158575b600080fd5b61010d610270565b60405161011a9190610858565b60405180910390f35b6101366101313660046108c3565b610302565b604051901515815260200161011a565b6002545b60405190815260200161011a565b6101366101663660046108ed565b61031c565b6040516012815260200161011a565b61018d6101883660046108c3565b610340565b005b61018d61019d366004610929565b610356565b61014a6101b0366004610942565b6001600160a01b031660009081526020819052604090205490565b61018d61036b565b6005546040516001600160a01b03909116815260200161011a565b61010d61037f565b6101366102043660046108c3565b61038e565b61018d61021736600461097a565b61039c565b61014a61022a366004610a2b565b6001600160a01b03918216600090815260016020908152604080832093909416825291909152205490565b61010d6103b0565b61018d61026b366004610942565b61043e565b60606003805461027f90610a5e565b80601f01602080910402602001604051908101604052809291908181526020018280546102ab90610a5e565b80156102f85780601f106102cd576101008083540402835291602001916102f8565b820191906000526020600020905b8154815290600101906020018083116102db57829003601f168201915b5050505050905090565b60003361031081858561047e565b60019150505b92915050565b60003361032a858285610490565b61033585858561050f565b506001949350505050565b61034861056e565b610352828261059b565b5050565b61035e61056e565b61036833826105d1565b50565b61037361056e565b61037d6000610607565b565b60606004805461027f90610a5e565b60003361031081858561050f565b6103a461056e565b60066103528282610ae8565b600680546103bd90610a5e565b80601f01602080910402602001604051908101604052809291908181526020018280546103e990610a5e565b80156104365780601f1061040b57610100808354040283529160200191610436565b820191906000526020600020905b81548152906001019060200180831161041957829003601f168201915b505050505081565b61044661056e565b6001600160a01b03811661047557604051631e4fbdf760e01b8152600060048201526024015b60405180910390fd5b61036881610607565b61048b8383836001610659565b505050565b6001600160a01b0383811660009081526001602090815260408083209386168352929052205460001981101561050957818110156104fa57604051637dc7a0d960e11b81526001600160a01b0384166004820152602481018290526044810183905260640161046c565b61050984848484036000610659565b50505050565b6001600160a01b03831661053957604051634b637e8f60e11b81526000600482015260240161046c565b6001600160a01b0382166105635760405163ec442f0560e01b81526000600482015260240161046c565b61048b83838361072e565b6005546001600160a01b0316331461037d5760405163118cdaa760e01b815233600482015260240161046c565b6001600160a01b0382166105c55760405163ec442f0560e01b81526000600482015260240161046c565b6103526000838361072e565b6001600160a01b0382166105fb57604051634b637e8f60e11b81526000600482015260240161046c565b6103528260008361072e565b600580546001600160a01b038381166001600160a01b0319831681179093556040519116919082907f8be0079c531659141344cd1fd0a4f28419497f9722a3daafe3b4186f6b6457e090600090a35050565b6001600160a01b0384166106835760405163e602df0560e01b81526000600482015260240161046c565b6001600160a01b0383166106ad57604051634a1406b160e11b81526000600482015260240161046c565b6001600160a01b038085166000908152600160209081526040808320938716835292905220829055801561050957826001600160a01b0316846001600160a01b03167f8c5be1e5ebec7d5bd14f71427d1e84f3dd0314c0f7b2291e5b200ac8c7c3b9258460405161072091815260200190565b60405180910390a350505050565b6001600160a01b03831661075957806002600082825461074e9190610ba8565b909155506107cb9050565b6001600160a01b038316600090815260208190526040902054818110156107ac5760405163391434e360e21b81526001600160a01b0385166004820152602481018290526044810183905260640161046c565b6001600160a01b03841660009081526020819052604090209082900390555b6001600160a01b0382166107e757600280548290039055610806565b6001600160a01b03821660009081526020819052604090208054820190555b816001600160a01b0316836001600160a01b03167fddf252ad1be2c89b69c2b068fc378daa952ba7f163c4a11628f55a4df523b3ef8360405161084b91815260200190565b60405180910390a3505050565b60006020808352835180602085015260005b818110156108865785810183015185820160400152820161086a565b506000604082860101526040601f19601f8301168501019250505092915050565b80356001600160a01b03811681146108be57600080fd5b919050565b600080604083850312156108d657600080fd5b6108df836108a7565b946020939093013593505050565b60008060006060848603121561090257600080fd5b61090b846108a7565b9250610919602085016108a7565b9150604084013590509250925092565b60006020828403121561093b57600080fd5b5035919050565b60006020828403121561095457600080fd5b61095d826108a7565b9392505050565b634e487b7160e01b600052604160045260246000fd5b60006020828403121561098c57600080fd5b813567ffffffffffffffff808211156109a457600080fd5b818401915084601f8301126109b857600080fd5b8135818111156109ca576109ca610964565b604051601f8201601f19908116603f011681019083821181831017156109f2576109f2610964565b81604052828152876020848701011115610a0b57600080fd5b826020860160208301376000928101602001929092525095945050505050565b60008060408385031215610a3e57600080fd5b610a47836108a7565b9150610a55602084016108a7565b90509250929050565b600181811c90821680610a7257607f821691505b602082108103610a9257634e487b7160e01b600052602260045260246000fd5b50919050565b601f82111561048b576000816000526020600020601f850160051c81016020861015610ac15750805b601f850160051c820191505b81811015610ae057828155600101610acd565b505050505050565b815167ffffffffffffffff811115610b0257610b02610964565b610b1681610b108454610a5e565b84610a98565b602080601f831160018114610b4b5760008415610b335750858301515b600019600386901b1c1916600185901b178555610ae0565b600085815260208120601f198616915b82811015610b7a57888601518255948401946001909101908401610b5b565b5085821015610b985787850151600019600388901b60f8161c191681555b5050505050600190811b01905550565b8082018082111561031657634e487b7160e01b600052601160045260246000fdfea26469706673582212201d4f04207598b93a585c3d7d96227d8f71ef0fc9cac4ebdc7fcb01f2d0ad205c64736f6c63430008180033",
  "linkReferences": {},
  "deployedLinkReferences": {}
}