{
  "_format": "hh-sol-artifact-1",
  "contractName": "Citadel",
  "sourceName": "contracts/Citadel.sol",
  "abi": [
    {
      "inputs": [],
      "stateMutability": "nonpayable",
      "type": "constructor"
    },
    {
      "anonymous": false,
      "inputs": [
        {
          "indexed": true,
          "internalType": "address",
          "name": "candidate",
          "type": "address"
        },
        {
          "indexed": false,
          "internalType": "string",
          "name": "manifesto",
          "type": "string"
        },
        {
          "indexed": false,
          "internalType": "uint256",
          "name": "stake",
          "type": "uint256"
        },
        {
          "indexed": false,
          "internalType": "uint256",
          "name": "deadline",
          "type": "uint256"
        }
      ],
      "name": "CandidateApplied",
      "type": "event"
    },
    {
      "anonymous": false,
      "inputs": [
        {
          "indexed": true,
          "internalType": "address",
          "name": "candidate",
          "type": "address"
        }
      ],
      "name": "CandidateRejected",
      "type": "event"
    },
    {
      "anonymous": false,
      "inputs": [
        {
          "indexed": true,
          "internalType": "address",
          "name": "candidate",
          "type": "address"
        },
        {
          "indexed": true,
          "internalType": "address",
          "name": "voter",
          "type": "address"
        },
        {
          "indexed": false,
          "internalType": "bool",
          "name": "support",
          "type": "bool"
        }
      ],
      "name": "CandidateVoteCast",
      "type": "event"
    },
    {
      "anonymous": false,
      "inputs": [
        {
          "indexed": false,
          "internalType": "uint256",
          "name": "newEra",
          "type": "uint256"
        }
      ],
      "name": "EraAdvanced",
      "type": "event"
    },
    {
      "anonymous": false,
      "inputs": [
        {
          "indexed": true,
          "internalType": "address",
          "name": "oldFounder",
          "type": "address"
        },
        {
          "indexed": true,
          "internalType": "address",
          "name": "newFounder",
          "type": "address"
        },
        {
          "indexed": false,
          "internalType": "uint256",
          "name": "timestamp",
          "type": "uint256"
        }
      ],
      "name": "FounderRotated",
      "type": "event"
    },
    {
      "anonymous": false,
      "inputs": [
        {
          "indexed": true,
          "internalType": "uint256",
          "name": "id",
          "type": "uint256"
        },
        {
          "indexed": true,
          "internalType": "address",
          "name": "proposer",
          "type": "address"
        },
        {
          "indexed": false,
          "internalType": "address",
          "name": "speaker",
          "type": "address"
        },
        {
          "indexed": false,
          "internalType": "string",
          "name": "description",
          "type": "string"
        },
        {
          "indexed": false,
          "internalType": "uint256",
          "name": "offering",
          "type": "uint256"
        },
        {
          "indexed": false,
          "internalType": "uint256",
          "name": "deadline",
          "type": "uint256"
        }
      ],
      "name": "ProposalCreated",
      "type": "event"
    },
    {
      "anonymous": false,
      "inputs": [
        {
          "indexed": true,
          "internalType": "uint256",
          "name": "id",
          "type": "uint256"
        },
        {
          "indexed": false,
          "internalType": "bool",
          "name": "passed",
          "type": "bool"
        },
        {
          "indexed": false,
          "internalType": "uint256",
          "name": "votesFor",
          "type": "uint256"
        },
        {
          "indexed": false,
          "internalType": "uint256",
          "name": "votesAgainst",
          "type": "uint256"
        }
      ],
      "name": "ProposalExecuted",
      "type": "event"
    },
    {
      "anonymous": false,
      "inputs": [
        {
          "indexed": false,
          "internalType": "uint256",
          "name": "amount",
          "type": "uint256"
        },
        {
          "indexed": false,
          "internalType": "string",
          "name": "reason",
          "type": "string"
        }
      ],
      "name": "TreasuryDeposit",
      "type": "event"
    },
    {
      "anonymous": false,
      "inputs": [
        {
          "indexed": true,
          "internalType": "address",
          "name": "to",
          "type": "address"
        },
        {
          "indexed": false,
          "internalType": "uint256",
          "name": "amount",
          "type": "uint256"
        }
      ],
      "name": "TreasuryWithdrawal",
      "type": "event"
    },
    {
      "anonymous": false,
      "inputs": [
        {
          "indexed": true,
          "internalType": "address",
          "name": "newValidator",
          "type": "address"
        },
        {
          "indexed": false,
          "internalType": "uint256",
          "name": "totalValidators",
          "type": "uint256"
        }
      ],
      "name": "ValidatorAscended",
      "type": "event"
    },
    {
      "anonymous": false,
      "inputs": [
        {
          "indexed": true,
          "internalType": "uint256",
          "name": "proposalId",
          "type": "uint256"
        },
        {
          "indexed": true,
          "internalType": "address",
          "name": "voter",
          "type": "address"
        },
        {
          "indexed": false,
          "internalType": "bool",
          "name": "support",
          "type": "bool"
        }
      ],
      "name": "VoteCast",
      "type": "event"
    },
    {
      "inputs": [],
      "name": "ASCENSION_FEE",
      "outputs": [
        {
          "internalType": "uint256",
          "name": "",
          "type": "uint256"
        }
      ],
      "stateMutability": "view",
      "type": "function"
    },
    {
      "inputs": [],
      "name": "FOUNDER_ROTATION_INTERVAL",
      "outputs": [
        {
          "internalType": "uint256",
          "name": "",
          "type": "uint256"
        }
      ],
      "stateMutability": "view",
      "type": "function"
    },
    {
      "inputs": [],
      "name": "MAX_VALIDATORS",
      "outputs": [
        {
          "internalType": "uint256",
          "name": "",
          "type": "uint256"
        }
      ],
      "stateMutability": "view",
      "type": "function"
    },
    {
      "inputs": [],
      "name": "PROPOSAL_OFFERING",
      "outputs": [
        {
          "internalType": "uint256",
          "name": "",
          "type": "uint256"
        }
      ],
      "stateMutability": "view",
      "type": "function"
    },
    {
      "inputs": [],
      "name": "VOTING_PERIOD",
      "outputs": [
        {
          "internalType": "uint256",
          "name": "",
          "type": "uint256"
        }
      ],
      "stateMutability": "view",
      "type": "function"
    },
    {
      "inputs": [
        {
          "internalType": "string",
          "name": "_manifesto",
          "type": "string"
        }
      ],
      "name": "applyForAscension",
      "outputs": [],
      "stateMutability": "payable",
      "type": "function"
    },
    {
      "inputs": [
        {
          "internalType": "uint256",
          "name": "",
          "type": "uint256"
        }
      ],
      "name": "candidateList",
      "outputs": [
        {
          "internalType": "address",
          "name": "",
          "type": "address"
        }
      ],
      "stateMutability": "view",
      "type": "function"
    },
    {
      "inputs": [
        {
          "internalType": "address",
          "name": "",
          "type": "address"
        }
      ],
      "name": "candidates",
      "outputs": [
        {
          "internalType": "address",
          "name": "applicant",
          "type": "address"
        },
        {
          "internalType": "string",
          "name": "manifesto",
          "type": "string"
        },
        {
          "internalType": "uint256",
          "name": "stake",
          "type": "uint256"
        },
        {
          "internalType": "uint256",
          "name": "votesFor",
          "type": "uint256"
        },
        {
          "internalType": "uint256",
          "name": "votesAgainst",
          "type": "uint256"
        },
        {
          "internalType": "uint256",
          "name": "deadline",
          "type": "uint256"
        },
        {
          "internalType": "bool",
          "name": "resolved",
          "type": "bool"
        },
        {
          "internalType": "bool",
          "name": "accepted",
          "type": "bool"
        }
      ],
      "stateMutability": "view",
      "type": "function"
    },
    {
      "inputs": [],
      "name": "distributeRewards",
      "outputs": [],
      "stateMutability": "nonpayable",
      "type": "function"
    },
    {
      "inputs": [],
      "name": "era",
      "outputs": [
        {
          "internalType": "uint256",
          "name": "",
          "type": "uint256"
        }
      ],
      "stateMutability": "view",
      "type": "function"
    },
    {
      "inputs": [
        {
          "internalType": "uint256",
          "name": "_proposalId",
          "type": "uint256"
        }
      ],
      "name": "executeProposal",
      "outputs": [],
      "stateMutability": "nonpayable",
      "type": "function"
    },
    {
      "inputs": [],
      "name": "founder",
      "outputs": [
        {
          "internalType": "address",
          "name": "",
          "type": "address"
        }
      ],
      "stateMutability": "view",
      "type": "function"
    },
    {
      "inputs": [],
      "name": "getCandidateList",
      "outputs": [
        {
          "internalType": "address[]",
          "name": "",
          "type": "address[]"
        }
      ],
      "stateMutability": "view",
      "type": "function"
    },
    {
      "inputs": [
        {
          "internalType": "address",
          "name": "_candidate",
          "type": "address"
        }
      ],
      "name": "getCandidateVotes",
      "outputs": [
        {
          "internalType": "uint256",
          "name": "votesFor",
          "type": "uint256"
        },
        {
          "internalType": "uint256",
          "name": "votesAgainst",
          "type": "uint256"
        },
        {
          "internalType": "bool",
          "name": "resolved",
          "type": "bool"
        },
        {
          "internalType": "bool",
          "name": "accepted",
          "type": "bool"
        }
      ],
      "stateMutability": "view",
      "type": "function"
    },
    {
      "inputs": [
        {
          "internalType": "uint256",
          "name": "_proposalId",
          "type": "uint256"
        }
      ],
      "name": "getProposalVotes",
      "outputs": [
        {
          "internalType": "uint256",
          "name": "votesFor",
          "type": "uint256"
        },
        {
          "internalType": "uint256",
          "name": "votesAgainst",
          "type": "uint256"
        },
        {
          "internalType": "bool",
          "name": "executed",
          "type": "bool"
        },
        {
          "internalType": "bool",
          "name": "passed",
          "type": "bool"
        }
      ],
      "stateMutability": "view",
      "type": "function"
    },
    {
      "inputs": [],
      "name": "getValidatorCount",
      "outputs": [
        {
          "internalType": "uint256",
          "name": "",
          "type": "uint256"
        }
      ],
      "stateMutability": "view",
      "type": "function"
    },
    {
      "inputs": [],
      "name": "getValidators",
      "outputs": [
        {
          "internalType": "address[]",
          "name": "",
          "type": "address[]"
        }
      ],
      "stateMutability": "view",
      "type": "function"
    },
    {
      "inputs": [
        {
          "internalType": "address",
          "name": "_candidate",
          "type": "address"
        },
        {
          "internalType": "address",
          "name": "_voter",
          "type": "address"
        }
      ],
      "name": "hasVotedOnCandidate",
      "outputs": [
        {
          "internalType": "bool",
          "name": "",
          "type": "bool"
        }
      ],
      "stateMutability": "view",
      "type": "function"
    },
    {
      "inputs": [
        {
          "internalType": "uint256",
          "name": "_proposalId",
          "type": "uint256"
        },
        {
          "internalType": "address",
          "name": "_voter",
          "type": "address"
        }
      ],
      "name": "hasVotedOnProposal",
      "outputs": [
        {
          "internalType": "bool",
          "name": "",
          "type": "bool"
        }
      ],
      "stateMutability": "view",
      "type": "function"
    },
    {
      "inputs": [
        {
          "internalType": "address",
          "name": "",
          "type": "address"
        }
      ],
      "name": "isValidator",
      "outputs": [
        {
          "internalType": "bool",
          "name": "",
          "type": "bool"
        }
      ],
      "stateMutability": "view",
      "type": "function"
    },
    {
      "inputs": [],
      "name": "lastFounderRotation",
      "outputs": [
        {
          "internalType": "uint256",
          "name": "",
          "type": "uint256"
        }
      ],
      "stateMutability": "view",
      "type": "function"
    },
    {
      "inputs": [],
      "name": "proposalCount",
      "outputs": [
        {
          "internalType": "uint256",
          "name": "",
          "type": "uint256"
        }
      ],
      "stateMutability": "view",
      "type": "function"
    },
    {
      "inputs": [
        {
          "internalType": "uint256",
          "name": "",
          "type": "uint256"
        }
      ],
      "name": "proposals",
      "outputs": [
        {
          "internalType": "uint256",
          "name": "id",
          "type": "uint256"
        },
        {
          "internalType": "address",
          "name": "proposer",
          "type": "address"
        },
        {
          "internalType": "address",
          "name": "speaker",
          "type": "address"
        },
        {
          "internalType": "string",
          "name": "description",
          "type": "string"
        },
        {
          "internalType": "uint256",
          "name": "offering",
          "type": "uint256"
        },
        {
          "internalType": "uint256",
          "name": "votesFor",
          "type": "uint256"
        },
        {
          "internalType": "uint256",
          "name": "votesAgainst",
          "type": "uint256"
        },
        {
          "internalType": "uint256",
          "name": "deadline",
          "type": "uint256"
        },
        {
          "internalType": "bool",
          "name": "executed",
          "type": "bool"
        },
        {
          "internalType": "bool",
          "name": "passed",
          "type": "bool"
        }
      ],
      "stateMutability": "view",
      "type": "function"
    },
    {
      "inputs": [
        {
          "internalType": "address",
          "name": "_candidate",
          "type": "address"
        }
      ],
      "name": "resolveAscension",
      "outputs": [],
      "stateMutability": "nonpayable",
      "type": "function"
    },
    {
      "inputs": [],
      "name": "rotateFounder",
      "outputs": [],
      "stateMutability": "nonpayable",
      "type": "function"
    },
    {
      "inputs": [
        {
          "internalType": "address",
          "name": "_validator",
          "type": "address"
        }
      ],
      "name": "seedValidator",
      "outputs": [],
      "stateMutability": "nonpayable",
      "type": "function"
    },
    {
      "inputs": [
        {
          "internalType": "string",
          "name": "_description",
          "type": "string"
        }
      ],
      "name": "submitProposal",
      "outputs": [],
      "stateMutability": "payable",
      "type": "function"
    },
    {
      "inputs": [],
      "name": "treasury",
      "outputs": [
        {
          "internalType": "uint256",
          "name": "",
          "type": "uint256"
        }
      ],
      "stateMutability": "view",
      "type": "function"
    },
    {
      "inputs": [
        {
          "internalType": "uint256",
          "name": "",
          "type": "uint256"
        }
      ],
      "name": "validators",
      "outputs": [
        {
          "internalType": "address",
          "name": "",
          "type": "address"
        }
      ],
      "stateMutability": "view",
      "type": "function"
    },
    {
      "inputs": [
        {
          "internalType": "uint256",
          "name": "_proposalId",
          "type": "uint256"
        },
        {
          "internalType": "bool",
          "name": "_support",
          "type": "bool"
        }
      ],
      "name": "vote",
      "outputs": [],
      "stateMutability": "nonpayable",
      "type": "function"
    },
    {
      "inputs": [
        {
          "internalType": "address",
          "name": "_candidate",
          "type": "address"
        },
        {
          "internalType": "bool",
          "name": "_support",
          "type": "bool"
        }
      ],
      "name": "voteOnCandidate",
      "outputs": [],
      "stateMutability": "nonpayable",
      "type": "function"
    },
    {
      "inputs": [],
      "name": "withdrawAllTreasury",
      "outputs": [],
      "stateMutability": "nonpayable",
      "type": "function"
    },
    {
      "inputs": [
        {
          "internalType": "uint256",
          "name": "_amount",
          "type": "uint256"
        }
      ],
      "name": "withdrawTreasury",
      "outputs": [],
      "stateMutability": "nonpayable",
      "type": "function"
    },
    {
      "stateMutability": "payable",
      "type": "receive"
    }
  ],
  "bytecode": "0x608060405234801561001057600080fd5b50600080546001600160a01b031990811633908117835560016002819055600380548083019091557fc2575a0e9e593c00f959f8c92f12db2869c3395a3b0502d05e2516446f71f85b0180549093168217909255825260046020526040909120805460ff19169091179055436009556124a48061008e6000396000f3fe6080604052600436106101f25760003560e01c806361d027b31161010d578063b1610d7e116100a0578063da35c6641161006f578063da35c664146106a7578063e9a83359146106bd578063ef8d8b09146106d2578063facd743b146106e5578063fdbc40061461071557600080fd5b8063b1610d7e146105f6578063b7ab4db51461060d578063c9d27afe1461062f578063d82f25f01461064f57600080fd5b806384172288116100dc57806384172288146105665780638ab66a9014610582578063980a9a2c146105b6578063b13c744b146105d657600080fd5b806361d027b3146105115780636f4a2cd0146105275780637071688a1461053c578063714897df1461055157600080fd5b806335aa2e44116101855780634d853ee5116101545780634d853ee5146104575780635ae79873146104775780635c352f3914610497578063600303d8146104c757600080fd5b806335aa2e4414610382578063373d6d5e146103ba57806339a8d42e146103cd57806347c66140146103e357600080fd5b806311f1fc99116101c157806311f1fc991461031a578063143e55e01461033a57806318b2948c146103505780631b6c67c11461036d57600080fd5b8063013cf08b14610275578063034e211d146102b45780630b03ba09146102d65780630d61b519146102fa57600080fd5b366102705734600860008282546102099190611eee565b90915550506040517ffc1c4ad174859d02f45fef76f1a0bf0b924620d34301b44988a9bb6392c787da9061026690348152604060208201819052600e908201526d111a5c9958dd0819195c1bdcda5d60921b606082015260800190565b60405180910390a1005b600080fd5b34801561028157600080fd5b50610295610290366004611f01565b61072a565b6040516102ab9a99989796959493929190611f60565b60405180910390f35b3480156102c057600080fd5b506102d46102cf366004611fea565b610814565b005b3480156102e257600080fd5b506102ec610e1081565b6040519081526020016102ab565b34801561030657600080fd5b506102d4610315366004611f01565b610b38565b34801561032657600080fd5b506102d4610335366004611f01565b610d11565b34801561034657600080fd5b506102ec60025481565b34801561035c57600080fd5b506102ec68056bc75e2d6310000081565b34801561037957600080fd5b506102d4610ed7565b34801561038e57600080fd5b506103a261039d366004611f01565b610f6c565b6040516001600160a01b0390911681526020016102ab565b6102d46103c836600461200c565b610f96565b3480156103d957600080fd5b506102ec60095481565b3480156103ef57600080fd5b5061042f6103fe366004611f01565b6000908152600560208190526040909120908101546006820154600890920154909260ff8083169261010090041690565b60408051948552602085019390935290151591830191909152151560608201526080016102ab565b34801561046357600080fd5b506000546103a2906001600160a01b031681565b34801561048357600080fd5b506102d461049236600461208e565b611204565b3480156104a357600080fd5b506104b76104b23660046120c1565b61143c565b60405190151581526020016102ab565b3480156104d357600080fd5b506104b76104e23660046120eb565b60008281526005602090815260408083206001600160a01b038516845260090190915290205460ff1692915050565b34801561051d57600080fd5b506102ec60085481565b34801561053357600080fd5b506102d4611470565b34801561054857600080fd5b506003546102ec565b34801561055d57600080fd5b506102ec606481565b34801561057257600080fd5b506102ec674563918244f4000081565b34801561058e57600080fd5b506105a261059d366004611fea565b611607565b6040516102ab98979695949392919061210e565b3480156105c257600080fd5b506102d46105d1366004611fea565b6116e1565b3480156105e257600080fd5b506103a26105f1366004611f01565b61184d565b34801561060257600080fd5b506102ec6201518081565b34801561061957600080fd5b5061062261185d565b6040516102ab919061216a565b34801561063b57600080fd5b506102d461064a3660046121b7565b6118bf565b34801561065b57600080fd5b5061042f61066a366004611fea565b6001600160a01b038116600090815260066020819052604090912060038101546004820154919092015460ff808216916101009004169193509193565b3480156106b357600080fd5b506102ec60015481565b3480156106c957600080fd5b506102d4611ae6565b6102d46106e036600461200c565b611c4d565b3480156106f157600080fd5b506104b7610700366004611fea565b60046020526000908152604090205460ff1681565b34801561072157600080fd5b50610622611e78565b600560205260009081526040902080546001820154600283015460038401805493946001600160a01b03938416949390921692610766906121da565b80601f0160208091040260200160405190810160405280929190818152602001828054610792906121da565b80156107df5780601f106107b4576101008083540402835291602001916107df565b820191906000526020600020905b8154815290600101906020018083116107c257829003601f168201915b505050600484015460058501546006860154600787015460089097015495969295919450925060ff808216916101009004168a565b6001600160a01b038082166000908152600660205260409020805490911661087e5760405162461bcd60e51b815260206004820152601860248201527710d85b991a59185d1948191bd95cc81b9bdd08195e1a5cdd60421b60448201526064015b60405180910390fd5b806005015442116108c75760405162461bcd60e51b8152602060048201526013602482015272566f74696e67207374696c6c2061637469766560681b6044820152606401610875565b600681015460ff161561090f5760405162461bcd60e51b815260206004820152601060248201526f105b1c9958591e481c995cdbdb1d995960821b6044820152606401610875565b600681018054600483015460038401541161010090810261ffff199092169190911760011791829055900460ff1615610a6a576003805460018082019092557fc2575a0e9e593c00f959f8c92f12db2869c3395a3b0502d05e2516446f71f85b0180546001600160a01b0319166001600160a01b0385169081179091556000908152600460205260408120805460ff1916909217909155600282015460088054919290916109be908490611eee565b90915550506003546040519081526001600160a01b038316907f3a7dcf9e5d72ff7a45d0ca1c97dad79292efb617df24d966d8ce300dd35bb8ea9060200160405180910390a27ffc1c4ad174859d02f45fef76f1a0bf0b924620d34301b44988a9bb6392c787da8160020154604051610a5e918152604060208201819052600d908201526c417363656e73696f6e2066656560981b606082015260800190565b60405180910390a15050565b60028101546040516000916001600160a01b038516918381818185875af1925050503d8060008114610ab8576040519150601f19603f3d011682016040523d82523d6000602084013e610abd565b606091505b5050905080610afe5760405162461bcd60e51b815260206004820152600d60248201526c1499599d5b990819985a5b1959609a1b6044820152606401610875565b6040516001600160a01b038416907f949d82a6bf5b9f6545827f85ed5d7ad9721f1995844d4cdefad0598d11051e7190600090a2505b5050565b60008181526005602052604081208054909103610b915760405162461bcd60e51b8152602060048201526017602482015276141c9bdc1bdcd85b08191bd95cc81b9bdd08195e1a5cdd604a1b6044820152606401610875565b80600701544211610bda5760405162461bcd60e51b8152602060048201526013602482015272566f74696e67207374696c6c2061637469766560681b6044820152606401610875565b600881015460ff1615610c225760405162461bcd60e51b815260206004820152601060248201526f105b1c9958591e48195e1958dd5d195960821b6044820152606401610875565b6008810180546006830154600584015481811161010090810261ffff19909416939093176001179384905560405186947f51043a71347ff0cc0f4812318640889c286669511ad84c970c108141a05164fa94610c9794910460ff16929192151583526020830191909152604082015260600190565b60405180910390a26008810154610100900460ff168015610cc457506005600154610cc2919061222a565b155b15610b345760028054906000610cd98361223e565b91905055507fcba52165d7db8abeed16bc6a2a149dcfc51407fb62d22e1464dd1f3132104d34600254604051610a5e91815260200190565b6000546001600160a01b03163314610d3b5760405162461bcd60e51b815260040161087590612257565b60008111610d8b5760405162461bcd60e51b815260206004820152601d60248201527f416d6f756e74206d7573742062652067726561746572207468616e20300000006044820152606401610875565b600854811115610ddd5760405162461bcd60e51b815260206004820152601d60248201527f496e73756666696369656e742074726561737572792062616c616e63650000006044820152606401610875565b8060086000828254610def9190612280565b9091555050600080546040516001600160a01b039091169083905b60006040518083038185875af1925050503d8060008114610e47576040519150601f19603f3d011682016040523d82523d6000602084013e610e4c565b606091505b5050905080610e915760405162461bcd60e51b815260206004820152601160248201527015da5d1a191c985dd85b0819985a5b1959607a1b6044820152606401610875565b6000546040518381526001600160a01b03909116907f233c84dc0c19fbf51f9fa92214ffd8a59f512e0098bff5827455d02e401221c09060200160405180910390a25050565b6000546001600160a01b03163314610f015760405162461bcd60e51b815260040161087590612257565b600060085411610f475760405162461bcd60e51b81526020600482015260116024820152704e6f2074726561737572792066756e647360781b6044820152606401610875565b6008805460009182905581546040519192916001600160a01b03909116908390610e0a565b60038181548110610f7c57600080fd5b6000918252602090912001546001600160a01b0316905081565b674563918244f400003414610fed5760405162461bcd60e51b815260206004820152601e60248201527f4f66666572696e67206d7573742062652065786163746c792035204d4f4e00006044820152606401610875565b60035461103c5760405162461bcd60e51b815260206004820152601860248201527f4e6f2076616c696461746f727320696e20636f756e63696c00000000000000006044820152606401610875565b6001805490600061104c8361223e565b909155505060018054600081815260056020526040902090815590810180546001600160a01b03191633179055600381016110888385836122fa565b5034600482015561109c6201518042611eee565b60078201556003546001546040805142602082015244918101919091526060810191909152600091906080016040516020818303038152906040528051906020012060001c6110eb919061222a565b905060038181548110611100576111006123bb565b60009182526020822001546002840180546001600160a01b0319166001600160a01b039092169190911790556008805434929061113e908490611eee565b9091555050600154600283015460078401546040513393927f8a5ed66a83326884c08a1335fab35b7837b82dc7d3434dfc7e4236ed7a6920ce92611194926001600160a01b03909216918a918a913491906123fa565b60405180910390a37ffc1c4ad174859d02f45fef76f1a0bf0b924620d34301b44988a9bb6392c787da346040516111f69181526040602082018190526011908201527050726f706f73616c206f66666572696e6760781b606082015260800190565b60405180910390a150505050565b3360009081526004602052604090205460ff166112555760405162461bcd60e51b815260206004820152600f60248201526e2737ba1030903b30b634b230ba37b960891b6044820152606401610875565b6001600160a01b03808316600090815260066020526040902080549091166112ba5760405162461bcd60e51b815260206004820152601860248201527710d85b991a59185d1948191bd95cc81b9bdd08195e1a5cdd60421b6044820152606401610875565b80600501544211156113045760405162461bcd60e51b8152602060048201526013602482015272159bdd1a5b99c81c195c9a5bd908195b991959606a1b6044820152606401610875565b33600090815260078201602052604090205460ff16156113565760405162461bcd60e51b815260206004820152600d60248201526c105b1c9958591e481d9bdd1959609a1b6044820152606401610875565b600681015460ff161561139e5760405162461bcd60e51b815260206004820152601060248201526f105b1c9958591e481c995cdbdb1d995960821b6044820152606401610875565b3360009081526007820160205260409020805460ff1916600117905581156113dc576003810180549060006113d28361223e565b91905055506113f4565b6004810180549060006113ee8361223e565b91905055505b604051821515815233906001600160a01b038516907f84cda52198943dc1894b927c3eebac06ed98e8a932063c3f90a13ceadfab68dd906020015b60405180910390a3505050565b6001600160a01b038083166000908152600660209081526040808320938516835260079093019052205460ff165b92915050565b6000546001600160a01b0316331461149a5760405162461bcd60e51b815260040161087590612257565b6000600854116114e05760405162461bcd60e51b81526020600482015260116024820152704e6f2074726561737572792066756e647360781b6044820152606401610875565b60035461151f5760405162461bcd60e51b815260206004820152600d60248201526c4e6f2076616c696461746f727360981b6044820152606401610875565b60035460085460009161153191612433565b600060088190559091505b600354811015610b345760006003828154811061155b5761155b6123bb565b60009182526020822001546040516001600160a01b039091169185919081818185875af1925050503d80600081146115af576040519150601f19603f3d011682016040523d82523d6000602084013e6115b4565b606091505b50509050806115fe5760405162461bcd60e51b815260206004820152601660248201527514995dd85c99081d1c985b9cd9995c8819985a5b195960521b6044820152606401610875565b5060010161153c565b600660205260009081526040902080546001820180546001600160a01b039092169291611633906121da565b80601f016020809104026020016040519081016040528092919081815260200182805461165f906121da565b80156116ac5780601f10611681576101008083540402835291602001916116ac565b820191906000526020600020905b81548152906001019060200180831161168f57829003601f168201915b505050600284015460038501546004860154600587015460069097015495969295919450925060ff8082169161010090041688565b6000546001600160a01b0316331461170b5760405162461bcd60e51b815260040161087590612257565b6001600160a01b03811660009081526004602052604090205460ff161561176a5760405162461bcd60e51b815260206004820152601360248201527220b63932b0b23c9030903b30b634b230ba37b960691b6044820152606401610875565b6003546064116117ae5760405162461bcd60e51b815260206004820152600f60248201526e10dbdd5b98da5b081a5cc8199d5b1b608a1b6044820152606401610875565b60038054600180820183557fc2575a0e9e593c00f959f8c92f12db2869c3395a3b0502d05e2516446f71f85b90910180546001600160a01b0319166001600160a01b038516908117909155600081815260046020908152604091829020805460ff191690941790935592549251928352917f3a7dcf9e5d72ff7a45d0ca1c97dad79292efb617df24d966d8ce300dd35bb8ea910160405180910390a250565b60078181548110610f7c57600080fd5b606060038054806020026020016040519081016040528092919081815260200182805480156118b557602002820191906000526020600020905b81546001600160a01b03168152600190910190602001808311611897575b5050505050905090565b3360009081526004602052604090205460ff166119105760405162461bcd60e51b815260206004820152600f60248201526e2737ba1030903b30b634b230ba37b960891b6044820152606401610875565b600082815260056020526040812080549091036119695760405162461bcd60e51b8152602060048201526017602482015276141c9bdc1bdcd85b08191bd95cc81b9bdd08195e1a5cdd604a1b6044820152606401610875565b80600701544211156119b35760405162461bcd60e51b8152602060048201526013602482015272159bdd1a5b99c81c195c9a5bd908195b991959606a1b6044820152606401610875565b33600090815260098201602052604090205460ff1615611a055760405162461bcd60e51b815260206004820152600d60248201526c105b1c9958591e481d9bdd1959609a1b6044820152606401610875565b600881015460ff1615611a5a5760405162461bcd60e51b815260206004820152601960248201527f50726f706f73616c20616c7265616479206578656375746564000000000000006044820152606401610875565b3360009081526009820160205260409020805460ff191660011790558115611a9857600581018054906000611a8e8361223e565b9190505550611ab0565b600681018054906000611aaa8361223e565b91905055505b6040518215158152339084907fe71fcdac32df1877c1700e7bda2a03157e20993363a28fc35ac495cefc76e4d49060200161142f565b610e10600954611af69190611eee565b431015611b3a5760405162461bcd60e51b8152602060048201526012602482015271526f746174696f6e20746f6f206561726c7960701b6044820152606401610875565b600354611b895760405162461bcd60e51b815260206004820152601a60248201527f4e6f2076616c696461746f727320746f20726f7461746520746f0000000000006044820152606401610875565b600354604080514260208201524491810191909152436060820152600091906080016040516020818303038152906040528051906020012060001c611bce919061222a565b9050600060038281548110611be557611be56123bb565b600091825260208220015481546001600160a01b031981166001600160a01b03928316908117909355436009556040519293501690829082907fde437b596dc22bd055ce9f9d2aecc1014dfcebcdb1e23863b15ee4687398db2e9061142f9042815260200190565b68056bc75e2d631000003414611cb35760405162461bcd60e51b815260206004820152602560248201527f417363656e73696f6e20666565206d7573742062652065786163746c79203130604482015264181026a7a760d91b6064820152608401610875565b3360009081526004602052604090205460ff1615611d095760405162461bcd60e51b815260206004820152601360248201527220b63932b0b23c9030903b30b634b230ba37b960691b6044820152606401610875565b600354606411611d4d5760405162461bcd60e51b815260206004820152600f60248201526e10dbdd5b98da5b081a5cc8199d5b1b608a1b6044820152606401610875565b336000908152600660205260409020546001600160a01b031615611da55760405162461bcd60e51b815260206004820152600f60248201526e105b1c9958591e48185c1c1b1a5959608a1b6044820152606401610875565b33600081815260066020526040902080546001600160a01b031916909117815560018101611dd48385836122fa565b50346002820155611de86201518042611eee565b60058201908155600780546001810182556000919091527fa66cc928b5edb82af9bd49922954155ab7b0942694bea4ce44661d9a8736c6880180546001600160a01b0319163390811790915590546040517f1bf72f3dc694402de6eb100311a62f96f70ac75f17b3bc21aa785baf65eb169a91611e6b9187918791349190612447565b60405180910390a2505050565b606060078054806020026020016040519081016040528092919081815260200182805480156118b5576020028201919060005260206000209081546001600160a01b03168152600190910190602001808311611897575050505050905090565b634e487b7160e01b600052601160045260246000fd5b8082018082111561146a5761146a611ed8565b600060208284031215611f1357600080fd5b5035919050565b6000815180845260005b81811015611f4057602081850181015186830182015201611f24565b506000602082860101526020601f19601f83011685010191505092915050565b8a81526001600160a01b038a811660208301528916604082015261014060608201819052600090611f938382018b611f1a565b6080840199909952505060a081019590955260c085019390935260e08401919091521515610100830152151561012090910152949350505050565b80356001600160a01b0381168114611fe557600080fd5b919050565b600060208284031215611ffc57600080fd5b61200582611fce565b9392505050565b6000806020838503121561201f57600080fd5b823567ffffffffffffffff8082111561203757600080fd5b818501915085601f83011261204b57600080fd5b81358181111561205a57600080fd5b86602082850101111561206c57600080fd5b60209290920196919550909350505050565b80358015158114611fe557600080fd5b600080604083850312156120a157600080fd5b6120aa83611fce565b91506120b86020840161207e565b90509250929050565b600080604083850312156120d457600080fd5b6120dd83611fce565b91506120b860208401611fce565b600080604083850312156120fe57600080fd5b823591506120b860208401611fce565b6001600160a01b0389168152610100602082018190526000906121338382018b611f1a565b604084019990995250506060810195909552608085019390935260a0840191909152151560c0830152151560e09091015292915050565b6020808252825182820181905260009190848201906040850190845b818110156121ab5783516001600160a01b031683529284019291840191600101612186565b50909695505050505050565b600080604083850312156121ca57600080fd5b823591506120b86020840161207e565b600181811c908216806121ee57607f821691505b60208210810361220e57634e487b7160e01b600052602260045260246000fd5b50919050565b634e487b7160e01b600052601260045260246000fd5b60008261223957612239612214565b500690565b60006001820161225057612250611ed8565b5060010190565b6020808252600f908201526e2737ba103a3432903337bab73232b960891b604082015260600190565b8181038181111561146a5761146a611ed8565b634e487b7160e01b600052604160045260246000fd5b601f8211156122f5576000816000526020600020601f850160051c810160208610156122d25750805b601f850160051c820191505b818110156122f1578281556001016122de565b5050505b505050565b67ffffffffffffffff83111561231257612312612293565b6123268361232083546121da565b836122a9565b6000601f84116001811461235a57600085156123425750838201355b600019600387901b1c1916600186901b1783556123b4565b600083815260209020601f19861690835b8281101561238b578685013582556020948501946001909201910161236b565b50868210156123a85760001960f88860031b161c19848701351681555b505060018560011b0183555b5050505050565b634e487b7160e01b600052603260045260246000fd5b81835281816020850137506000828201602090810191909152601f909101601f19169091010190565b6001600160a01b038616815260806020820181905260009061241f90830186886123d1565b604083019490945250606001529392505050565b60008261244257612442612214565b500490565b60608152600061245b6060830186886123d1565b602083019490945250604001529291505056fea26469706673582212201392667305121b0714bca312f1aaa2cf4eb2bf6bf386c80a31450b1c4ea12a8a64736f6c63430008180033",
  "linkReferences": {},
  "deployedLinkReferences": {}
}