{
  "_format": "hh-sol-artifact-1",
  "contractName": "Citadel",
  "sourceName": "contracts/Citadel.sol",
  "abi": [
    {
      "inputs": [
        {
          "internalType": "address",
          "name": "_founder",
          "type": "address"
        }
      ],
      "stateMutability": "nonpayable",
      "type": "constructor"
    },
    {
      "anonymous": false,
      "inputs": [
        {
          "indexed": true,
          "internalType": "address",
          "name": "candidate",
          "type": "address"
        },
        {
          "indexed": false,
          "internalType": "string",
          "name": "manifesto",
          "type": "string"
        },
        {
          "indexed": false,
          "internalType": "uint256",
          "name": "stake",
          "type": "uint256"
        },
        {
          "indexed": false,
          "internalType": "uint256",
          "name": "deadline",
          "type": "uint256"
        }
      ],
      "name": "CandidateApplied",
      "type": "event"
    },
    {
      "anonymous": false,
      "inputs": [
        {
          "indexed": true,
          "internalType": "address",
          "name": "candidate",
          "type": "address"
        }
      ],
      "name": "CandidateRejected",
      "type": "event"
    },
    {
      "anonymous": false,
      "inputs": [
        {
          "indexed": true,
          "internalType": "address",
          "name": "candidate",
          "type": "address"
        },
        {
          "indexed": true,
          "internalType": "address",
          "name": "voter",
          "type": "address"
        },
        {
          "indexed": false,
          "internalType": "bool",
          "name": "support",
          "type": "bool"
        }
      ],
      "name": "CandidateVoteCast",
      "type": "event"
    },
    {
      "anonymous": false,
      "inputs": [
        {
          "indexed": false,
          "internalType": "uint256",
          "name": "newEra",
          "type": "uint256"
        }
      ],
      "name": "EraAdvanced",
      "type": "event"
    },
    {
      "anonymous": false,
      "inputs": [
        {
          "indexed": true,
          "internalType": "address",
          "name": "oldFounder",
          "type": "address"
        },
        {
          "indexed": true,
          "internalType": "address",
          "name": "newFounder",
          "type": "address"
        },
        {
          "indexed": false,
          "internalType": "uint256",
          "name": "timestamp",
          "type": "uint256"
        }
      ],
      "name": "FounderRotated",
      "type": "event"
    },
    {
      "anonymous": false,
      "inputs": [
        {
          "indexed": true,
          "internalType": "uint256",
          "name": "id",
          "type": "uint256"
        },
        {
          "indexed": true,
          "internalType": "address",
          "name": "proposer",
          "type": "address"
        },
        {
          "indexed": false,
          "internalType": "address",
          "name": "speaker",
          "type": "address"
        },
        {
          "indexed": false,
          "internalType": "string",
          "name": "description",
          "type": "string"
        },
        {
          "indexed": false,
          "internalType": "uint256",
          "name": "offering",
          "type": "uint256"
        },
        {
          "indexed": false,
          "internalType": "uint256",
          "name": "deadline",
          "type": "uint256"
        }
      ],
      "name": "ProposalCreated",
      "type": "event"
    },
    {
      "anonymous": false,
      "inputs": [
        {
          "indexed": true,
          "internalType": "uint256",
          "name": "id",
          "type": "uint256"
        },
        {
          "indexed": false,
          "internalType": "bool",
          "name": "passed",
          "type": "bool"
        },
        {
          "indexed": false,
          "internalType": "uint256",
          "name": "votesFor",
          "type": "uint256"
        },
        {
          "indexed": false,
          "internalType": "uint256",
          "name": "votesAgainst",
          "type": "uint256"
        }
      ],
      "name": "ProposalExecuted",
      "type": "event"
    },
    {
      "anonymous": false,
      "inputs": [
        {
          "indexed": false,
          "internalType": "uint256",
          "name": "amount",
          "type": "uint256"
        },
        {
          "indexed": false,
          "internalType": "string",
          "name": "reason",
          "type": "string"
        }
      ],
      "name": "TreasuryDeposit",
      "type": "event"
    },
    {
      "anonymous": false,
      "inputs": [
        {
          "indexed": true,
          "internalType": "address",
          "name": "to",
          "type": "address"
        },
        {
          "indexed": false,
          "internalType": "uint256",
          "name": "amount",
          "type": "uint256"
        }
      ],
      "name": "TreasuryWithdrawal",
      "type": "event"
    },
    {
      "anonymous": false,
      "inputs": [
        {
          "indexed": true,
          "internalType": "address",
          "name": "newValidator",
          "type": "address"
        },
        {
          "indexed": false,
          "internalType": "uint256",
          "name": "totalValidators",
          "type": "uint256"
        }
      ],
      "name": "ValidatorAscended",
      "type": "event"
    },
    {
      "anonymous": false,
      "inputs": [
        {
          "indexed": true,
          "internalType": "uint256",
          "name": "proposalId",
          "type": "uint256"
        },
        {
          "indexed": true,
          "internalType": "address",
          "name": "voter",
          "type": "address"
        },
        {
          "indexed": false,
          "internalType": "bool",
          "name": "support",
          "type": "bool"
        }
      ],
      "name": "VoteCast",
      "type": "event"
    },
    {
      "inputs": [],
      "name": "ASCENSION_FEE",
      "outputs": [
        {
          "internalType": "uint256",
          "name": "",
          "type": "uint256"
        }
      ],
      "stateMutability": "view",
      "type": "function"
    },
    {
      "inputs": [],
      "name": "FOUNDER_ROTATION_INTERVAL",
      "outputs": [
        {
          "internalType": "uint256",
          "name": "",
          "type": "uint256"
        }
      ],
      "stateMutability": "view",
      "type": "function"
    },
    {
      "inputs": [],
      "name": "MAX_VALIDATORS",
      "outputs": [
        {
          "internalType": "uint256",
          "name": "",
          "type": "uint256"
        }
      ],
      "stateMutability": "view",
      "type": "function"
    },
    {
      "inputs": [],
      "name": "PROPOSAL_OFFERING",
      "outputs": [
        {
          "internalType": "uint256",
          "name": "",
          "type": "uint256"
        }
      ],
      "stateMutability": "view",
      "type": "function"
    },
    {
      "inputs": [],
      "name": "VOTING_PERIOD",
      "outputs": [
        {
          "internalType": "uint256",
          "name": "",
          "type": "uint256"
        }
      ],
      "stateMutability": "view",
      "type": "function"
    },
    {
      "inputs": [
        {
          "internalType": "string",
          "name": "_manifesto",
          "type": "string"
        }
      ],
      "name": "applyForAscension",
      "outputs": [],
      "stateMutability": "payable",
      "type": "function"
    },
    {
      "inputs": [
        {
          "internalType": "uint256",
          "name": "",
          "type": "uint256"
        }
      ],
      "name": "candidateList",
      "outputs": [
        {
          "internalType": "address",
          "name": "",
          "type": "address"
        }
      ],
      "stateMutability": "view",
      "type": "function"
    },
    {
      "inputs": [
        {
          "internalType": "address",
          "name": "",
          "type": "address"
        }
      ],
      "name": "candidates",
      "outputs": [
        {
          "internalType": "address",
          "name": "applicant",
          "type": "address"
        },
        {
          "internalType": "string",
          "name": "manifesto",
          "type": "string"
        },
        {
          "internalType": "uint256",
          "name": "stake",
          "type": "uint256"
        },
        {
          "internalType": "uint256",
          "name": "votesFor",
          "type": "uint256"
        },
        {
          "internalType": "uint256",
          "name": "votesAgainst",
          "type": "uint256"
        },
        {
          "internalType": "uint256",
          "name": "deadline",
          "type": "uint256"
        },
        {
          "internalType": "bool",
          "name": "resolved",
          "type": "bool"
        },
        {
          "internalType": "bool",
          "name": "accepted",
          "type": "bool"
        }
      ],
      "stateMutability": "view",
      "type": "function"
    },
    {
      "inputs": [],
      "name": "distributeRewards",
      "outputs": [],
      "stateMutability": "nonpayable",
      "type": "function"
    },
    {
      "inputs": [],
      "name": "era",
      "outputs": [
        {
          "internalType": "uint256",
          "name": "",
          "type": "uint256"
        }
      ],
      "stateMutability": "view",
      "type": "function"
    },
    {
      "inputs": [
        {
          "internalType": "uint256",
          "name": "_proposalId",
          "type": "uint256"
        }
      ],
      "name": "executeProposal",
      "outputs": [],
      "stateMutability": "nonpayable",
      "type": "function"
    },
    {
      "inputs": [],
      "name": "founder",
      "outputs": [
        {
          "internalType": "address",
          "name": "",
          "type": "address"
        }
      ],
      "stateMutability": "view",
      "type": "function"
    },
    {
      "inputs": [],
      "name": "getCandidateList",
      "outputs": [
        {
          "internalType": "address[]",
          "name": "",
          "type": "address[]"
        }
      ],
      "stateMutability": "view",
      "type": "function"
    },
    {
      "inputs": [
        {
          "internalType": "address",
          "name": "_candidate",
          "type": "address"
        }
      ],
      "name": "getCandidateVotes",
      "outputs": [
        {
          "internalType": "uint256",
          "name": "votesFor",
          "type": "uint256"
        },
        {
          "internalType": "uint256",
          "name": "votesAgainst",
          "type": "uint256"
        },
        {
          "internalType": "bool",
          "name": "resolved",
          "type": "bool"
        },
        {
          "internalType": "bool",
          "name": "accepted",
          "type": "bool"
        }
      ],
      "stateMutability": "view",
      "type": "function"
    },
    {
      "inputs": [
        {
          "internalType": "uint256",
          "name": "_proposalId",
          "type": "uint256"
        }
      ],
      "name": "getProposalVotes",
      "outputs": [
        {
          "internalType": "uint256",
          "name": "votesFor",
          "type": "uint256"
        },
        {
          "internalType": "uint256",
          "name": "votesAgainst",
          "type": "uint256"
        },
        {
          "internalType": "bool",
          "name": "executed",
          "type": "bool"
        },
        {
          "internalType": "bool",
          "name": "passed",
          "type": "bool"
        }
      ],
      "stateMutability": "view",
      "type": "function"
    },
    {
      "inputs": [],
      "name": "getValidatorCount",
      "outputs": [
        {
          "internalType": "uint256",
          "name": "",
          "type": "uint256"
        }
      ],
      "stateMutability": "view",
      "type": "function"
    },
    {
      "inputs": [],
      "name": "getValidators",
      "outputs": [
        {
          "internalType": "address[]",
          "name": "",
          "type": "address[]"
        }
      ],
      "stateMutability": "view",
      "type": "function"
    },
    {
      "inputs": [
        {
          "internalType": "address",
          "name": "_candidate",
          "type": "address"
        },
        {
          "internalType": "address",
          "name": "_voter",
          "type": "address"
        }
      ],
      "name": "hasVotedOnCandidate",
      "outputs": [
        {
          "internalType": "bool",
          "name": "",
          "type": "bool"
        }
      ],
      "stateMutability": "view",
      "type": "function"
    },
    {
      "inputs": [
        {
          "internalType": "uint256",
          "name": "_proposalId",
          "type": "uint256"
        },
        {
          "internalType": "address",
          "name": "_voter",
          "type": "address"
        }
      ],
      "name": "hasVotedOnProposal",
      "outputs": [
        {
          "internalType": "bool",
          "name": "",
          "type": "bool"
        }
      ],
      "stateMutability": "view",
      "type": "function"
    },
    {
      "inputs": [
        {
          "internalType": "address",
          "name": "",
          "type": "address"
        }
      ],
      "name": "isValidator",
      "outputs": [
        {
          "internalType": "bool",
          "name": "",
          "type": "bool"
        }
      ],
      "stateMutability": "view",
      "type": "function"
    },
    {
      "inputs": [],
      "name": "lastFounderRotation",
      "outputs": [
        {
          "internalType": "uint256",
          "name": "",
          "type": "uint256"
        }
      ],
      "stateMutability": "view",
      "type": "function"
    },
    {
      "inputs": [],
      "name": "proposalCount",
      "outputs": [
        {
          "internalType": "uint256",
          "name": "",
          "type": "uint256"
        }
      ],
      "stateMutability": "view",
      "type": "function"
    },
    {
      "inputs": [
        {
          "internalType": "uint256",
          "name": "",
          "type": "uint256"
        }
      ],
      "name": "proposals",
      "outputs": [
        {
          "internalType": "uint256",
          "name": "id",
          "type": "uint256"
        },
        {
          "internalType": "address",
          "name": "proposer",
          "type": "address"
        },
        {
          "internalType": "address",
          "name": "speaker",
          "type": "address"
        },
        {
          "internalType": "string",
          "name": "description",
          "type": "string"
        },
        {
          "internalType": "uint256",
          "name": "offering",
          "type": "uint256"
        },
        {
          "internalType": "uint256",
          "name": "votesFor",
          "type": "uint256"
        },
        {
          "internalType": "uint256",
          "name": "votesAgainst",
          "type": "uint256"
        },
        {
          "internalType": "uint256",
          "name": "deadline",
          "type": "uint256"
        },
        {
          "internalType": "bool",
          "name": "executed",
          "type": "bool"
        },
        {
          "internalType": "bool",
          "name": "passed",
          "type": "bool"
        }
      ],
      "stateMutability": "view",
      "type": "function"
    },
    {
      "inputs": [
        {
          "internalType": "address",
          "name": "_candidate",
          "type": "address"
        }
      ],
      "name": "resolveAscension",
      "outputs": [],
      "stateMutability": "nonpayable",
      "type": "function"
    },
    {
      "inputs": [],
      "name": "rotateFounder",
      "outputs": [],
      "stateMutability": "nonpayable",
      "type": "function"
    },
    {
      "inputs": [
        {
          "internalType": "address",
          "name": "_validator",
          "type": "address"
        }
      ],
      "name": "seedValidator",
      "outputs": [],
      "stateMutability": "nonpayable",
      "type": "function"
    },
    {
      "inputs": [
        {
          "internalType": "string",
          "name": "_description",
          "type": "string"
        }
      ],
      "name": "submitProposal",
      "outputs": [],
      "stateMutability": "payable",
      "type": "function"
    },
    {
      "inputs": [],
      "name": "treasury",
      "outputs": [
        {
          "internalType": "uint256",
          "name": "",
          "type": "uint256"
        }
      ],
      "stateMutability": "view",
      "type": "function"
    },
    {
      "inputs": [
        {
          "internalType": "uint256",
          "name": "",
          "type": "uint256"
        }
      ],
      "name": "validators",
      "outputs": [
        {
          "internalType": "address",
          "name": "",
          "type": "address"
        }
      ],
      "stateMutability": "view",
      "type": "function"
    },
    {
      "inputs": [
        {
          "internalType": "uint256",
          "name": "_proposalId",
          "type": "uint256"
        },
        {
          "internalType": "bool",
          "name": "_support",
          "type": "bool"
        }
      ],
      "name": "vote",
      "outputs": [],
      "stateMutability": "nonpayable",
      "type": "function"
    },
    {
      "inputs": [
        {
          "internalType": "address",
          "name": "_candidate",
          "type": "address"
        },
        {
          "internalType": "bool",
          "name": "_support",
          "type": "bool"
        }
      ],
      "name": "voteOnCandidate",
      "outputs": [],
      "stateMutability": "nonpayable",
      "type": "function"
    },
    {
      "inputs": [],
      "name": "withdrawAllTreasury",
      "outputs": [],
      "stateMutability": "nonpayable",
      "type": "function"
    },
    {
      "inputs": [
        {
          "internalType": "uint256",
          "name": "_amount",
          "type": "uint256"
        }
      ],
      "name": "withdrawTreasury",
      "outputs": [],
      "stateMutability": "nonpayable",
      "type": "function"
    },
    {
      "stateMutability": "payable",
      "type": "receive"
    }
  ],
  "bytecode": "0x60806040523480156200001157600080fd5b5060405162002614380380620026148339810160408190526200003491620000b0565b600080546001600160a01b039092166001600160a01b03199283168117825560016002819055600380548083019091557fc2575a0e9e593c00f959f8c92f12db2869c3395a3b0502d05e2516446f71f85b01805490941682179093558152600460205260409020805460ff1916909117905543600955620000e2565b600060208284031215620000c357600080fd5b81516001600160a01b0381168114620000db57600080fd5b9392505050565b61252280620000f26000396000f3fe6080604052600436106101f25760003560e01c806361d027b31161010d578063b1610d7e116100a0578063da35c6641161006f578063da35c664146106a6578063e9a83359146106bc578063ef8d8b09146106d1578063facd743b146106e4578063fdbc40061461071457600080fd5b8063b1610d7e146105f5578063b7ab4db51461060c578063c9d27afe1461062e578063d82f25f01461064e57600080fd5b806384172288116100dc57806384172288146105655780638ab66a9014610581578063980a9a2c146105b5578063b13c744b146105d557600080fd5b806361d027b3146105105780636f4a2cd0146105265780637071688a1461053b578063714897df1461055057600080fd5b806335aa2e44116101855780634d853ee5116101545780634d853ee5146104565780635ae79873146104765780635c352f3914610496578063600303d8146104c657600080fd5b806335aa2e4414610381578063373d6d5e146103b957806339a8d42e146103cc57806347c66140146103e257600080fd5b806311f1fc99116101c157806311f1fc991461031a578063143e55e01461033a57806318b2948c146103505780631b6c67c11461036c57600080fd5b8063013cf08b14610275578063034e211d146102b45780630b03ba09146102d65780630d61b519146102fa57600080fd5b366102705734600860008282546102099190611f6c565b90915550506040517ffc1c4ad174859d02f45fef76f1a0bf0b924620d34301b44988a9bb6392c787da9061026690348152604060208201819052600e908201526d111a5c9958dd0819195c1bdcda5d60921b606082015260800190565b60405180910390a1005b600080fd5b34801561028157600080fd5b50610295610290366004611f7f565b610729565b6040516102ab9a99989796959493929190611fde565b60405180910390f35b3480156102c057600080fd5b506102d46102cf366004612068565b610813565b005b3480156102e257600080fd5b506102ec610e1081565b6040519081526020016102ab565b34801561030657600080fd5b506102d4610315366004611f7f565b610b37565b34801561032657600080fd5b506102d4610335366004611f7f565b610d10565b34801561034657600080fd5b506102ec60025481565b34801561035c57600080fd5b506102ec678ac7230489e8000081565b34801561037857600080fd5b506102d4610f22565b34801561038d57600080fd5b506103a161039c366004611f7f565b610fed565b6040516001600160a01b0390911681526020016102ab565b6102d46103c736600461208a565b611017565b3480156103d857600080fd5b506102ec60095481565b3480156103ee57600080fd5b5061042e6103fd366004611f7f565b6000908152600560208190526040909120908101546006820154600890920154909260ff8083169261010090041690565b60408051948552602085019390935290151591830191909152151560608201526080016102ab565b34801561046257600080fd5b506000546103a1906001600160a01b031681565b34801561048257600080fd5b506102d461049136600461210c565b611285565b3480156104a257600080fd5b506104b66104b136600461213f565b6114bd565b60405190151581526020016102ab565b3480156104d257600080fd5b506104b66104e1366004612169565b60008281526005602090815260408083206001600160a01b038516845260090190915290205460ff1692915050565b34801561051c57600080fd5b506102ec60085481565b34801561053257600080fd5b506102d46114f1565b34801561054757600080fd5b506003546102ec565b34801561055c57600080fd5b506102ec606481565b34801561057157600080fd5b506102ec670de0b6b3a764000081565b34801561058d57600080fd5b506105a161059c366004612068565b611688565b6040516102ab98979695949392919061218c565b3480156105c157600080fd5b506102d46105d0366004612068565b611762565b3480156105e157600080fd5b506103a16105f0366004611f7f565b6118ce565b34801561060157600080fd5b506102ec6201518081565b34801561061857600080fd5b506106216118de565b6040516102ab91906121e8565b34801561063a57600080fd5b506102d4610649366004612235565b611940565b34801561065a57600080fd5b5061042e610669366004612068565b6001600160a01b038116600090815260066020819052604090912060038101546004820154919092015460ff808216916101009004169193509193565b3480156106b257600080fd5b506102ec60015481565b3480156106c857600080fd5b506102d4611b67565b6102d46106df36600461208a565b611cce565b3480156106f057600080fd5b506104b66106ff366004612068565b60046020526000908152604090205460ff1681565b34801561072057600080fd5b50610621611ef6565b600560205260009081526040902080546001820154600283015460038401805493946001600160a01b0393841694939092169261076590612258565b80601f016020809104026020016040519081016040528092919081815260200182805461079190612258565b80156107de5780601f106107b3576101008083540402835291602001916107de565b820191906000526020600020905b8154815290600101906020018083116107c157829003601f168201915b505050600484015460058501546006860154600787015460089097015495969295919450925060ff808216916101009004168a565b6001600160a01b038082166000908152600660205260409020805490911661087d5760405162461bcd60e51b815260206004820152601860248201527710d85b991a59185d1948191bd95cc81b9bdd08195e1a5cdd60421b60448201526064015b60405180910390fd5b806005015442116108c65760405162461bcd60e51b8152602060048201526013602482015272566f74696e67207374696c6c2061637469766560681b6044820152606401610874565b600681015460ff161561090e5760405162461bcd60e51b815260206004820152601060248201526f105b1c9958591e481c995cdbdb1d995960821b6044820152606401610874565b600681018054600483015460038401541161010090810261ffff199092169190911760011791829055900460ff1615610a69576003805460018082019092557fc2575a0e9e593c00f959f8c92f12db2869c3395a3b0502d05e2516446f71f85b0180546001600160a01b0319166001600160a01b0385169081179091556000908152600460205260408120805460ff1916909217909155600282015460088054919290916109bd908490611f6c565b90915550506003546040519081526001600160a01b038316907f3a7dcf9e5d72ff7a45d0ca1c97dad79292efb617df24d966d8ce300dd35bb8ea9060200160405180910390a27ffc1c4ad174859d02f45fef76f1a0bf0b924620d34301b44988a9bb6392c787da8160020154604051610a5d918152604060208201819052600d908201526c417363656e73696f6e2066656560981b606082015260800190565b60405180910390a15050565b60028101546040516000916001600160a01b038516918381818185875af1925050503d8060008114610ab7576040519150601f19603f3d011682016040523d82523d6000602084013e610abc565b606091505b5050905080610afd5760405162461bcd60e51b815260206004820152600d60248201526c1499599d5b990819985a5b1959609a1b6044820152606401610874565b6040516001600160a01b038416907f949d82a6bf5b9f6545827f85ed5d7ad9721f1995844d4cdefad0598d11051e7190600090a2505b5050565b60008181526005602052604081208054909103610b905760405162461bcd60e51b8152602060048201526017602482015276141c9bdc1bdcd85b08191bd95cc81b9bdd08195e1a5cdd604a1b6044820152606401610874565b80600701544211610bd95760405162461bcd60e51b8152602060048201526013602482015272566f74696e67207374696c6c2061637469766560681b6044820152606401610874565b600881015460ff1615610c215760405162461bcd60e51b815260206004820152601060248201526f105b1c9958591e48195e1958dd5d195960821b6044820152606401610874565b6008810180546006830154600584015481811161010090810261ffff19909416939093176001179384905560405186947f51043a71347ff0cc0f4812318640889c286669511ad84c970c108141a05164fa94610c9694910460ff16929192151583526020830191909152604082015260600190565b60405180910390a26008810154610100900460ff168015610cc357506005600154610cc191906122a8565b155b15610b335760028054906000610cd8836122bc565b91905055507fcba52165d7db8abeed16bc6a2a149dcfc51407fb62d22e1464dd1f3132104d34600254604051610a5d91815260200190565b6000546001600160a01b03163314610d3a5760405162461bcd60e51b8152600401610874906122d5565b60008111610d8a5760405162461bcd60e51b815260206004820152601d60248201527f416d6f756e74206d7573742062652067726561746572207468616e20300000006044820152606401610874565b600854811115610ddc5760405162461bcd60e51b815260206004820152601d60248201527f496e73756666696369656e742074726561737572792062616c616e63650000006044820152606401610874565b8060086000828254610dee91906122fe565b90915550506000546001600160a01b0316610e455760405162461bcd60e51b8152602060048201526017602482015276119bdd5b99195c881859191c995cdcc81b9bdd081cd95d604a1b6044820152606401610874565b600080546040516001600160a01b039091169083908381818185875af1925050503d8060008114610e92576040519150601f19603f3d011682016040523d82523d6000602084013e610e97565b606091505b5050905080610edc5760405162461bcd60e51b815260206004820152601160248201527015da5d1a191c985dd85b0819985a5b1959607a1b6044820152606401610874565b6000546040518381526001600160a01b03909116907f233c84dc0c19fbf51f9fa92214ffd8a59f512e0098bff5827455d02e401221c09060200160405180910390a25050565b6000546001600160a01b03163314610f4c5760405162461bcd60e51b8152600401610874906122d5565b600060085411610f925760405162461bcd60e51b81526020600482015260116024820152704e6f2074726561737572792066756e647360781b6044820152606401610874565b6008805460009182905590546001600160a01b0316610e455760405162461bcd60e51b8152602060048201526017602482015276119bdd5b99195c881859191c995cdcc81b9bdd081cd95d604a1b6044820152606401610874565b60038181548110610ffd57600080fd5b6000918252602090912001546001600160a01b0316905081565b670de0b6b3a7640000341461106e5760405162461bcd60e51b815260206004820152601e60248201527f4f66666572696e67206d7573742062652065786163746c792031204d4f4e00006044820152606401610874565b6003546110bd5760405162461bcd60e51b815260206004820152601860248201527f4e6f2076616c696461746f727320696e20636f756e63696c00000000000000006044820152606401610874565b600180549060006110cd836122bc565b909155505060018054600081815260056020526040902090815590810180546001600160a01b0319163317905560038101611109838583612378565b5034600482015561111d6201518042611f6c565b60078201556003546001546040805142602082015244918101919091526060810191909152600091906080016040516020818303038152906040528051906020012060001c61116c91906122a8565b90506003818154811061118157611181612439565b60009182526020822001546002840180546001600160a01b0319166001600160a01b03909216919091179055600880543492906111bf908490611f6c565b9091555050600154600283015460078401546040513393927f8a5ed66a83326884c08a1335fab35b7837b82dc7d3434dfc7e4236ed7a6920ce92611215926001600160a01b03909216918a918a91349190612478565b60405180910390a37ffc1c4ad174859d02f45fef76f1a0bf0b924620d34301b44988a9bb6392c787da346040516112779181526040602082018190526011908201527050726f706f73616c206f66666572696e6760781b606082015260800190565b60405180910390a150505050565b3360009081526004602052604090205460ff166112d65760405162461bcd60e51b815260206004820152600f60248201526e2737ba1030903b30b634b230ba37b960891b6044820152606401610874565b6001600160a01b038083166000908152600660205260409020805490911661133b5760405162461bcd60e51b815260206004820152601860248201527710d85b991a59185d1948191bd95cc81b9bdd08195e1a5cdd60421b6044820152606401610874565b80600501544211156113855760405162461bcd60e51b8152602060048201526013602482015272159bdd1a5b99c81c195c9a5bd908195b991959606a1b6044820152606401610874565b33600090815260078201602052604090205460ff16156113d75760405162461bcd60e51b815260206004820152600d60248201526c105b1c9958591e481d9bdd1959609a1b6044820152606401610874565b600681015460ff161561141f5760405162461bcd60e51b815260206004820152601060248201526f105b1c9958591e481c995cdbdb1d995960821b6044820152606401610874565b3360009081526007820160205260409020805460ff19166001179055811561145d57600381018054906000611453836122bc565b9190505550611475565b60048101805490600061146f836122bc565b91905055505b604051821515815233906001600160a01b038516907f84cda52198943dc1894b927c3eebac06ed98e8a932063c3f90a13ceadfab68dd906020015b60405180910390a3505050565b6001600160a01b038083166000908152600660209081526040808320938516835260079093019052205460ff165b92915050565b6000546001600160a01b0316331461151b5760405162461bcd60e51b8152600401610874906122d5565b6000600854116115615760405162461bcd60e51b81526020600482015260116024820152704e6f2074726561737572792066756e647360781b6044820152606401610874565b6003546115a05760405162461bcd60e51b815260206004820152600d60248201526c4e6f2076616c696461746f727360981b6044820152606401610874565b6003546008546000916115b2916124b1565b600060088190559091505b600354811015610b33576000600382815481106115dc576115dc612439565b60009182526020822001546040516001600160a01b039091169185919081818185875af1925050503d8060008114611630576040519150601f19603f3d011682016040523d82523d6000602084013e611635565b606091505b505090508061167f5760405162461bcd60e51b815260206004820152601660248201527514995dd85c99081d1c985b9cd9995c8819985a5b195960521b6044820152606401610874565b506001016115bd565b600660205260009081526040902080546001820180546001600160a01b0390921692916116b490612258565b80601f01602080910402602001604051908101604052809291908181526020018280546116e090612258565b801561172d5780601f106117025761010080835404028352916020019161172d565b820191906000526020600020905b81548152906001019060200180831161171057829003601f168201915b505050600284015460038501546004860154600587015460069097015495969295919450925060ff8082169161010090041688565b6000546001600160a01b0316331461178c5760405162461bcd60e51b8152600401610874906122d5565b6001600160a01b03811660009081526004602052604090205460ff16156117eb5760405162461bcd60e51b815260206004820152601360248201527220b63932b0b23c9030903b30b634b230ba37b960691b6044820152606401610874565b60035460641161182f5760405162461bcd60e51b815260206004820152600f60248201526e10dbdd5b98da5b081a5cc8199d5b1b608a1b6044820152606401610874565b60038054600180820183557fc2575a0e9e593c00f959f8c92f12db2869c3395a3b0502d05e2516446f71f85b90910180546001600160a01b0319166001600160a01b038516908117909155600081815260046020908152604091829020805460ff191690941790935592549251928352917f3a7dcf9e5d72ff7a45d0ca1c97dad79292efb617df24d966d8ce300dd35bb8ea910160405180910390a250565b60078181548110610ffd57600080fd5b6060600380548060200260200160405190810160405280929190818152602001828054801561193657602002820191906000526020600020905b81546001600160a01b03168152600190910190602001808311611918575b5050505050905090565b3360009081526004602052604090205460ff166119915760405162461bcd60e51b815260206004820152600f60248201526e2737ba1030903b30b634b230ba37b960891b6044820152606401610874565b600082815260056020526040812080549091036119ea5760405162461bcd60e51b8152602060048201526017602482015276141c9bdc1bdcd85b08191bd95cc81b9bdd08195e1a5cdd604a1b6044820152606401610874565b8060070154421115611a345760405162461bcd60e51b8152602060048201526013602482015272159bdd1a5b99c81c195c9a5bd908195b991959606a1b6044820152606401610874565b33600090815260098201602052604090205460ff1615611a865760405162461bcd60e51b815260206004820152600d60248201526c105b1c9958591e481d9bdd1959609a1b6044820152606401610874565b600881015460ff1615611adb5760405162461bcd60e51b815260206004820152601960248201527f50726f706f73616c20616c7265616479206578656375746564000000000000006044820152606401610874565b3360009081526009820160205260409020805460ff191660011790558115611b1957600581018054906000611b0f836122bc565b9190505550611b31565b600681018054906000611b2b836122bc565b91905055505b6040518215158152339084907fe71fcdac32df1877c1700e7bda2a03157e20993363a28fc35ac495cefc76e4d4906020016114b0565b610e10600954611b779190611f6c565b431015611bbb5760405162461bcd60e51b8152602060048201526012602482015271526f746174696f6e20746f6f206561726c7960701b6044820152606401610874565b600354611c0a5760405162461bcd60e51b815260206004820152601a60248201527f4e6f2076616c696461746f727320746f20726f7461746520746f0000000000006044820152606401610874565b600354604080514260208201524491810191909152436060820152600091906080016040516020818303038152906040528051906020012060001c611c4f91906122a8565b9050600060038281548110611c6657611c66612439565b600091825260208220015481546001600160a01b031981166001600160a01b03928316908117909355436009556040519293501690829082907fde437b596dc22bd055ce9f9d2aecc1014dfcebcdb1e23863b15ee4687398db2e906114b09042815260200190565b678ac7230489e800003414611d315760405162461bcd60e51b8152602060048201526024808201527f417363656e73696f6e20666565206d7573742062652065786163746c792031306044820152631026a7a760e11b6064820152608401610874565b3360009081526004602052604090205460ff1615611d875760405162461bcd60e51b815260206004820152601360248201527220b63932b0b23c9030903b30b634b230ba37b960691b6044820152606401610874565b600354606411611dcb5760405162461bcd60e51b815260206004820152600f60248201526e10dbdd5b98da5b081a5cc8199d5b1b608a1b6044820152606401610874565b336000908152600660205260409020546001600160a01b031615611e235760405162461bcd60e51b815260206004820152600f60248201526e105b1c9958591e48185c1c1b1a5959608a1b6044820152606401610874565b33600081815260066020526040902080546001600160a01b031916909117815560018101611e52838583612378565b50346002820155611e666201518042611f6c565b60058201908155600780546001810182556000919091527fa66cc928b5edb82af9bd49922954155ab7b0942694bea4ce44661d9a8736c6880180546001600160a01b0319163390811790915590546040517f1bf72f3dc694402de6eb100311a62f96f70ac75f17b3bc21aa785baf65eb169a91611ee991879187913491906124c5565b60405180910390a2505050565b60606007805480602002602001604051908101604052809291908181526020018280548015611936576020028201919060005260206000209081546001600160a01b03168152600190910190602001808311611918575050505050905090565b634e487b7160e01b600052601160045260246000fd5b808201808211156114eb576114eb611f56565b600060208284031215611f9157600080fd5b5035919050565b6000815180845260005b81811015611fbe57602081850181015186830182015201611fa2565b506000602082860101526020601f19601f83011685010191505092915050565b8a81526001600160a01b038a8116602083015289166040820152610140606082018190526000906120118382018b611f98565b6080840199909952505060a081019590955260c085019390935260e08401919091521515610100830152151561012090910152949350505050565b80356001600160a01b038116811461206357600080fd5b919050565b60006020828403121561207a57600080fd5b6120838261204c565b9392505050565b6000806020838503121561209d57600080fd5b823567ffffffffffffffff808211156120b557600080fd5b818501915085601f8301126120c957600080fd5b8135818111156120d857600080fd5b8660208285010111156120ea57600080fd5b60209290920196919550909350505050565b8035801515811461206357600080fd5b6000806040838503121561211f57600080fd5b6121288361204c565b9150612136602084016120fc565b90509250929050565b6000806040838503121561215257600080fd5b61215b8361204c565b91506121366020840161204c565b6000806040838503121561217c57600080fd5b823591506121366020840161204c565b6001600160a01b0389168152610100602082018190526000906121b18382018b611f98565b604084019990995250506060810195909552608085019390935260a0840191909152151560c0830152151560e09091015292915050565b6020808252825182820181905260009190848201906040850190845b818110156122295783516001600160a01b031683529284019291840191600101612204565b50909695505050505050565b6000806040838503121561224857600080fd5b82359150612136602084016120fc565b600181811c9082168061226c57607f821691505b60208210810361228c57634e487b7160e01b600052602260045260246000fd5b50919050565b634e487b7160e01b600052601260045260246000fd5b6000826122b7576122b7612292565b500690565b6000600182016122ce576122ce611f56565b5060010190565b6020808252600f908201526e2737ba103a3432903337bab73232b960891b604082015260600190565b818103818111156114eb576114eb611f56565b634e487b7160e01b600052604160045260246000fd5b601f821115612373576000816000526020600020601f850160051c810160208610156123505750805b601f850160051c820191505b8181101561236f5782815560010161235c565b5050505b505050565b67ffffffffffffffff83111561239057612390612311565b6123a48361239e8354612258565b83612327565b6000601f8411600181146123d857600085156123c05750838201355b600019600387901b1c1916600186901b178355612432565b600083815260209020601f19861690835b8281101561240957868501358255602094850194600190920191016123e9565b50868210156124265760001960f88860031b161c19848701351681555b505060018560011b0183555b5050505050565b634e487b7160e01b600052603260045260246000fd5b81835281816020850137506000828201602090810191909152601f909101601f19169091010190565b6001600160a01b038616815260806020820181905260009061249d908301868861244f565b604083019490945250606001529392505050565b6000826124c0576124c0612292565b500490565b6060815260006124d960608301868861244f565b602083019490945250604001529291505056fea2646970667358221220f604d7ad3d8783e8448bb53851d9f450f33854ca9fca207919b800626b29707164736f6c63430008180033",
  "linkReferences": {},
  "deployedLinkReferences": {}
}