{
  "_format": "hh-sol-artifact-1",
  "contractName": "Citadel",
  "sourceName": "contracts/Citadel.sol",
  "abi": [
    {
      "inputs": [],
      "stateMutability": "nonpayable",
      "type": "constructor"
    },
    {
      "anonymous": false,
      "inputs": [
        {
          "indexed": true,
          "internalType": "address",
          "name": "candidate",
          "type": "address"
        },
        {
          "indexed": false,
          "internalType": "string",
          "name": "manifesto",
          "type": "string"
        },
        {
          "indexed": false,
          "internalType": "uint256",
          "name": "stake",
          "type": "uint256"
        },
        {
          "indexed": false,
          "internalType": "uint256",
          "name": "deadline",
          "type": "uint256"
        }
      ],
      "name": "CandidateApplied",
      "type": "event"
    },
    {
      "anonymous": false,
      "inputs": [
        {
          "indexed": true,
          "internalType": "address",
          "name": "candidate",
          "type": "address"
        }
      ],
      "name": "CandidateRejected",
      "type": "event"
    },
    {
      "anonymous": false,
      "inputs": [
        {
          "indexed": true,
          "internalType": "address",
          "name": "candidate",
          "type": "address"
        },
        {
          "indexed": true,
          "internalType": "address",
          "name": "voter",
          "type": "address"
        },
        {
          "indexed": false,
          "internalType": "bool",
          "name": "support",
          "type": "bool"
        }
      ],
      "name": "CandidateVoteCast",
      "type": "event"
    },
    {
      "anonymous": false,
      "inputs": [
        {
          "indexed": false,
          "internalType": "uint256",
          "name": "newEra",
          "type": "uint256"
        }
      ],
      "name": "EraAdvanced",
      "type": "event"
    },
    {
      "anonymous": false,
      "inputs": [
        {
          "indexed": true,
          "internalType": "uint256",
          "name": "id",
          "type": "uint256"
        },
        {
          "indexed": true,
          "internalType": "address",
          "name": "proposer",
          "type": "address"
        },
        {
          "indexed": false,
          "internalType": "address",
          "name": "speaker",
          "type": "address"
        },
        {
          "indexed": false,
          "internalType": "string",
          "name": "description",
          "type": "string"
        },
        {
          "indexed": false,
          "internalType": "uint256",
          "name": "offering",
          "type": "uint256"
        },
        {
          "indexed": false,
          "internalType": "uint256",
          "name": "deadline",
          "type": "uint256"
        }
      ],
      "name": "ProposalCreated",
      "type": "event"
    },
    {
      "anonymous": false,
      "inputs": [
        {
          "indexed": true,
          "internalType": "uint256",
          "name": "id",
          "type": "uint256"
        },
        {
          "indexed": false,
          "internalType": "bool",
          "name": "passed",
          "type": "bool"
        },
        {
          "indexed": false,
          "internalType": "uint256",
          "name": "votesFor",
          "type": "uint256"
        },
        {
          "indexed": false,
          "internalType": "uint256",
          "name": "votesAgainst",
          "type": "uint256"
        }
      ],
      "name": "ProposalExecuted",
      "type": "event"
    },
    {
      "anonymous": false,
      "inputs": [
        {
          "indexed": false,
          "internalType": "uint256",
          "name": "amount",
          "type": "uint256"
        },
        {
          "indexed": false,
          "internalType": "string",
          "name": "reason",
          "type": "string"
        }
      ],
      "name": "TreasuryDeposit",
      "type": "event"
    },
    {
      "anonymous": false,
      "inputs": [
        {
          "indexed": true,
          "internalType": "address",
          "name": "newValidator",
          "type": "address"
        },
        {
          "indexed": false,
          "internalType": "uint256",
          "name": "totalValidators",
          "type": "uint256"
        }
      ],
      "name": "ValidatorAscended",
      "type": "event"
    },
    {
      "anonymous": false,
      "inputs": [
        {
          "indexed": true,
          "internalType": "uint256",
          "name": "proposalId",
          "type": "uint256"
        },
        {
          "indexed": true,
          "internalType": "address",
          "name": "voter",
          "type": "address"
        },
        {
          "indexed": false,
          "internalType": "bool",
          "name": "support",
          "type": "bool"
        }
      ],
      "name": "VoteCast",
      "type": "event"
    },
    {
      "inputs": [],
      "name": "ASCENSION_FEE",
      "outputs": [
        {
          "internalType": "uint256",
          "name": "",
          "type": "uint256"
        }
      ],
      "stateMutability": "view",
      "type": "function"
    },
    {
      "inputs": [],
      "name": "MAX_VALIDATORS",
      "outputs": [
        {
          "internalType": "uint256",
          "name": "",
          "type": "uint256"
        }
      ],
      "stateMutability": "view",
      "type": "function"
    },
    {
      "inputs": [],
      "name": "PROPOSAL_OFFERING",
      "outputs": [
        {
          "internalType": "uint256",
          "name": "",
          "type": "uint256"
        }
      ],
      "stateMutability": "view",
      "type": "function"
    },
    {
      "inputs": [],
      "name": "VOTING_PERIOD",
      "outputs": [
        {
          "internalType": "uint256",
          "name": "",
          "type": "uint256"
        }
      ],
      "stateMutability": "view",
      "type": "function"
    },
    {
      "inputs": [
        {
          "internalType": "string",
          "name": "_manifesto",
          "type": "string"
        }
      ],
      "name": "applyForAscension",
      "outputs": [],
      "stateMutability": "payable",
      "type": "function"
    },
    {
      "inputs": [
        {
          "internalType": "uint256",
          "name": "",
          "type": "uint256"
        }
      ],
      "name": "candidateList",
      "outputs": [
        {
          "internalType": "address",
          "name": "",
          "type": "address"
        }
      ],
      "stateMutability": "view",
      "type": "function"
    },
    {
      "inputs": [
        {
          "internalType": "address",
          "name": "",
          "type": "address"
        }
      ],
      "name": "candidates",
      "outputs": [
        {
          "internalType": "address",
          "name": "applicant",
          "type": "address"
        },
        {
          "internalType": "string",
          "name": "manifesto",
          "type": "string"
        },
        {
          "internalType": "uint256",
          "name": "stake",
          "type": "uint256"
        },
        {
          "internalType": "uint256",
          "name": "votesFor",
          "type": "uint256"
        },
        {
          "internalType": "uint256",
          "name": "votesAgainst",
          "type": "uint256"
        },
        {
          "internalType": "uint256",
          "name": "deadline",
          "type": "uint256"
        },
        {
          "internalType": "bool",
          "name": "resolved",
          "type": "bool"
        },
        {
          "internalType": "bool",
          "name": "accepted",
          "type": "bool"
        }
      ],
      "stateMutability": "view",
      "type": "function"
    },
    {
      "inputs": [],
      "name": "distributeRewards",
      "outputs": [],
      "stateMutability": "nonpayable",
      "type": "function"
    },
    {
      "inputs": [],
      "name": "era",
      "outputs": [
        {
          "internalType": "uint256",
          "name": "",
          "type": "uint256"
        }
      ],
      "stateMutability": "view",
      "type": "function"
    },
    {
      "inputs": [
        {
          "internalType": "uint256",
          "name": "_proposalId",
          "type": "uint256"
        }
      ],
      "name": "executeProposal",
      "outputs": [],
      "stateMutability": "nonpayable",
      "type": "function"
    },
    {
      "inputs": [],
      "name": "founder",
      "outputs": [
        {
          "internalType": "address",
          "name": "",
          "type": "address"
        }
      ],
      "stateMutability": "view",
      "type": "function"
    },
    {
      "inputs": [],
      "name": "getCandidateList",
      "outputs": [
        {
          "internalType": "address[]",
          "name": "",
          "type": "address[]"
        }
      ],
      "stateMutability": "view",
      "type": "function"
    },
    {
      "inputs": [
        {
          "internalType": "address",
          "name": "_candidate",
          "type": "address"
        }
      ],
      "name": "getCandidateVotes",
      "outputs": [
        {
          "internalType": "uint256",
          "name": "votesFor",
          "type": "uint256"
        },
        {
          "internalType": "uint256",
          "name": "votesAgainst",
          "type": "uint256"
        },
        {
          "internalType": "bool",
          "name": "resolved",
          "type": "bool"
        },
        {
          "internalType": "bool",
          "name": "accepted",
          "type": "bool"
        }
      ],
      "stateMutability": "view",
      "type": "function"
    },
    {
      "inputs": [
        {
          "internalType": "uint256",
          "name": "_proposalId",
          "type": "uint256"
        }
      ],
      "name": "getProposalVotes",
      "outputs": [
        {
          "internalType": "uint256",
          "name": "votesFor",
          "type": "uint256"
        },
        {
          "internalType": "uint256",
          "name": "votesAgainst",
          "type": "uint256"
        },
        {
          "internalType": "bool",
          "name": "executed",
          "type": "bool"
        },
        {
          "internalType": "bool",
          "name": "passed",
          "type": "bool"
        }
      ],
      "stateMutability": "view",
      "type": "function"
    },
    {
      "inputs": [],
      "name": "getValidatorCount",
      "outputs": [
        {
          "internalType": "uint256",
          "name": "",
          "type": "uint256"
        }
      ],
      "stateMutability": "view",
      "type": "function"
    },
    {
      "inputs": [],
      "name": "getValidators",
      "outputs": [
        {
          "internalType": "address[]",
          "name": "",
          "type": "address[]"
        }
      ],
      "stateMutability": "view",
      "type": "function"
    },
    {
      "inputs": [
        {
          "internalType": "address",
          "name": "_candidate",
          "type": "address"
        },
        {
          "internalType": "address",
          "name": "_voter",
          "type": "address"
        }
      ],
      "name": "hasVotedOnCandidate",
      "outputs": [
        {
          "internalType": "bool",
          "name": "",
          "type": "bool"
        }
      ],
      "stateMutability": "view",
      "type": "function"
    },
    {
      "inputs": [
        {
          "internalType": "uint256",
          "name": "_proposalId",
          "type": "uint256"
        },
        {
          "internalType": "address",
          "name": "_voter",
          "type": "address"
        }
      ],
      "name": "hasVotedOnProposal",
      "outputs": [
        {
          "internalType": "bool",
          "name": "",
          "type": "bool"
        }
      ],
      "stateMutability": "view",
      "type": "function"
    },
    {
      "inputs": [
        {
          "internalType": "address",
          "name": "",
          "type": "address"
        }
      ],
      "name": "isValidator",
      "outputs": [
        {
          "internalType": "bool",
          "name": "",
          "type": "bool"
        }
      ],
      "stateMutability": "view",
      "type": "function"
    },
    {
      "inputs": [],
      "name": "proposalCount",
      "outputs": [
        {
          "internalType": "uint256",
          "name": "",
          "type": "uint256"
        }
      ],
      "stateMutability": "view",
      "type": "function"
    },
    {
      "inputs": [
        {
          "internalType": "uint256",
          "name": "",
          "type": "uint256"
        }
      ],
      "name": "proposals",
      "outputs": [
        {
          "internalType": "uint256",
          "name": "id",
          "type": "uint256"
        },
        {
          "internalType": "address",
          "name": "proposer",
          "type": "address"
        },
        {
          "internalType": "address",
          "name": "speaker",
          "type": "address"
        },
        {
          "internalType": "string",
          "name": "description",
          "type": "string"
        },
        {
          "internalType": "uint256",
          "name": "offering",
          "type": "uint256"
        },
        {
          "internalType": "uint256",
          "name": "votesFor",
          "type": "uint256"
        },
        {
          "internalType": "uint256",
          "name": "votesAgainst",
          "type": "uint256"
        },
        {
          "internalType": "uint256",
          "name": "deadline",
          "type": "uint256"
        },
        {
          "internalType": "bool",
          "name": "executed",
          "type": "bool"
        },
        {
          "internalType": "bool",
          "name": "passed",
          "type": "bool"
        }
      ],
      "stateMutability": "view",
      "type": "function"
    },
    {
      "inputs": [
        {
          "internalType": "address",
          "name": "_candidate",
          "type": "address"
        }
      ],
      "name": "resolveAscension",
      "outputs": [],
      "stateMutability": "nonpayable",
      "type": "function"
    },
    {
      "inputs": [
        {
          "internalType": "address",
          "name": "_validator",
          "type": "address"
        }
      ],
      "name": "seedValidator",
      "outputs": [],
      "stateMutability": "nonpayable",
      "type": "function"
    },
    {
      "inputs": [
        {
          "internalType": "string",
          "name": "_description",
          "type": "string"
        }
      ],
      "name": "submitProposal",
      "outputs": [],
      "stateMutability": "payable",
      "type": "function"
    },
    {
      "inputs": [],
      "name": "treasury",
      "outputs": [
        {
          "internalType": "uint256",
          "name": "",
          "type": "uint256"
        }
      ],
      "stateMutability": "view",
      "type": "function"
    },
    {
      "inputs": [
        {
          "internalType": "uint256",
          "name": "",
          "type": "uint256"
        }
      ],
      "name": "validators",
      "outputs": [
        {
          "internalType": "address",
          "name": "",
          "type": "address"
        }
      ],
      "stateMutability": "view",
      "type": "function"
    },
    {
      "inputs": [
        {
          "internalType": "uint256",
          "name": "_proposalId",
          "type": "uint256"
        },
        {
          "internalType": "bool",
          "name": "_support",
          "type": "bool"
        }
      ],
      "name": "vote",
      "outputs": [],
      "stateMutability": "nonpayable",
      "type": "function"
    },
    {
      "inputs": [
        {
          "internalType": "address",
          "name": "_candidate",
          "type": "address"
        },
        {
          "internalType": "bool",
          "name": "_support",
          "type": "bool"
        }
      ],
      "name": "voteOnCandidate",
      "outputs": [],
      "stateMutability": "nonpayable",
      "type": "function"
    },
    {
      "stateMutability": "payable",
      "type": "receive"
    }
  ],
  "bytecode": "0x608060405234801561001057600080fd5b50600080546001600160a01b031990811633908117835560016002819055600380548083019091557fc2575a0e9e593c00f959f8c92f12db2869c3395a3b0502d05e2516446f71f85b0180549093168217909255825260046020526040909120805460ff1916909117905561203d8061008a6000396000f3fe6080604052600436106101bb5760003560e01c80637071688a116100ec578063b7ab4db51161008a578063da35c66411610064578063da35c6641461060f578063ef8d8b0914610625578063facd743b14610638578063fdbc40061461066857600080fd5b8063b7ab4db514610575578063c9d27afe14610597578063d82f25f0146105b757600080fd5b80638ab66a90116100c65780638ab66a90146104ea578063980a9a2c1461051e578063b13c744b1461053e578063b1610d7e1461055e57600080fd5b80637071688a146104a4578063714897df146104b957806384172288146104ce57600080fd5b806347c66140116101595780635c352f39116101335780635c352f39146103ff578063600303d81461042f57806361d027b3146104795780636f4a2cd01461048f57600080fd5b806347c661401461034b5780634d853ee5146103bf5780635ae79873146103df57600080fd5b8063143e55e011610195578063143e55e0146102bf57806318b2948c146102e357806335aa2e4414610300578063373d6d5e1461033857600080fd5b8063013cf08b1461023e578063034e211d1461027d5780630d61b5191461029f57600080fd5b366102395734600860008282546101d29190611ac3565b90915550506040517ffc1c4ad174859d02f45fef76f1a0bf0b924620d34301b44988a9bb6392c787da9061022f90348152604060208201819052600e908201526d111a5c9958dd0819195c1bdcda5d60921b606082015260800190565b60405180910390a1005b600080fd5b34801561024a57600080fd5b5061025e610259366004611ad6565b61067d565b6040516102749a99989796959493929190611b35565b60405180910390f35b34801561028957600080fd5b5061029d610298366004611bbf565b610767565b005b3480156102ab57600080fd5b5061029d6102ba366004611ad6565b610a8b565b3480156102cb57600080fd5b506102d560025481565b604051908152602001610274565b3480156102ef57600080fd5b506102d568056bc75e2d6310000081565b34801561030c57600080fd5b5061032061031b366004611ad6565b610c64565b6040516001600160a01b039091168152602001610274565b61029d610346366004611be1565b610c8e565b34801561035757600080fd5b50610397610366366004611ad6565b6000908152600560208190526040909120908101546006820154600890920154909260ff8083169261010090041690565b6040805194855260208501939093529015159183019190915215156060820152608001610274565b3480156103cb57600080fd5b50600054610320906001600160a01b031681565b3480156103eb57600080fd5b5061029d6103fa366004611c63565b610efc565b34801561040b57600080fd5b5061041f61041a366004611c96565b611134565b6040519015158152602001610274565b34801561043b57600080fd5b5061041f61044a366004611cc0565b60008281526005602090815260408083206001600160a01b038516845260090190915290205460ff1692915050565b34801561048557600080fd5b506102d560085481565b34801561049b57600080fd5b5061029d611168565b3480156104b057600080fd5b506003546102d5565b3480156104c557600080fd5b506102d5606481565b3480156104da57600080fd5b506102d5674563918244f4000081565b3480156104f657600080fd5b5061050a610505366004611bbf565b611321565b604051610274989796959493929190611ce3565b34801561052a57600080fd5b5061029d610539366004611bbf565b6113fb565b34801561054a57600080fd5b50610320610559366004611ad6565b611589565b34801561056a57600080fd5b506102d56201518081565b34801561058157600080fd5b5061058a611599565b6040516102749190611d3f565b3480156105a357600080fd5b5061029d6105b2366004611d8c565b6115fb565b3480156105c357600080fd5b506103976105d2366004611bbf565b6001600160a01b038116600090815260066020819052604090912060038101546004820154919092015460ff808216916101009004169193509193565b34801561061b57600080fd5b506102d560015481565b61029d610633366004611be1565b611822565b34801561064457600080fd5b5061041f610653366004611bbf565b60046020526000908152604090205460ff1681565b34801561067457600080fd5b5061058a611a4d565b600560205260009081526040902080546001820154600283015460038401805493946001600160a01b039384169493909216926106b990611daf565b80601f01602080910402602001604051908101604052809291908181526020018280546106e590611daf565b80156107325780601f1061070757610100808354040283529160200191610732565b820191906000526020600020905b81548152906001019060200180831161071557829003601f168201915b505050600484015460058501546006860154600787015460089097015495969295919450925060ff808216916101009004168a565b6001600160a01b03808216600090815260066020526040902080549091166107d15760405162461bcd60e51b815260206004820152601860248201527710d85b991a59185d1948191bd95cc81b9bdd08195e1a5cdd60421b60448201526064015b60405180910390fd5b8060050154421161081a5760405162461bcd60e51b8152602060048201526013602482015272566f74696e67207374696c6c2061637469766560681b60448201526064016107c8565b600681015460ff16156108625760405162461bcd60e51b815260206004820152601060248201526f105b1c9958591e481c995cdbdb1d995960821b60448201526064016107c8565b600681018054600483015460038401541161010090810261ffff199092169190911760011791829055900460ff16156109bd576003805460018082019092557fc2575a0e9e593c00f959f8c92f12db2869c3395a3b0502d05e2516446f71f85b0180546001600160a01b0319166001600160a01b0385169081179091556000908152600460205260408120805460ff191690921790915560028201546008805491929091610911908490611ac3565b90915550506003546040519081526001600160a01b038316907f3a7dcf9e5d72ff7a45d0ca1c97dad79292efb617df24d966d8ce300dd35bb8ea9060200160405180910390a27ffc1c4ad174859d02f45fef76f1a0bf0b924620d34301b44988a9bb6392c787da81600201546040516109b1918152604060208201819052600d908201526c417363656e73696f6e2066656560981b606082015260800190565b60405180910390a15050565b60028101546040516000916001600160a01b038516918381818185875af1925050503d8060008114610a0b576040519150601f19603f3d011682016040523d82523d6000602084013e610a10565b606091505b5050905080610a515760405162461bcd60e51b815260206004820152600d60248201526c1499599d5b990819985a5b1959609a1b60448201526064016107c8565b6040516001600160a01b038416907f949d82a6bf5b9f6545827f85ed5d7ad9721f1995844d4cdefad0598d11051e7190600090a2505b5050565b60008181526005602052604081208054909103610ae45760405162461bcd60e51b8152602060048201526017602482015276141c9bdc1bdcd85b08191bd95cc81b9bdd08195e1a5cdd604a1b60448201526064016107c8565b80600701544211610b2d5760405162461bcd60e51b8152602060048201526013602482015272566f74696e67207374696c6c2061637469766560681b60448201526064016107c8565b600881015460ff1615610b755760405162461bcd60e51b815260206004820152601060248201526f105b1c9958591e48195e1958dd5d195960821b60448201526064016107c8565b6008810180546006830154600584015481811161010090810261ffff19909416939093176001179384905560405186947f51043a71347ff0cc0f4812318640889c286669511ad84c970c108141a05164fa94610bea94910460ff16929192151583526020830191909152604082015260600190565b60405180910390a26008810154610100900460ff168015610c1757506005600154610c159190611dff565b155b15610a875760028054906000610c2c83611e13565b91905055507fcba52165d7db8abeed16bc6a2a149dcfc51407fb62d22e1464dd1f3132104d346002546040516109b191815260200190565b60038181548110610c7457600080fd5b6000918252602090912001546001600160a01b0316905081565b674563918244f400003414610ce55760405162461bcd60e51b815260206004820152601e60248201527f4f66666572696e67206d7573742062652065786163746c792035204d4f4e000060448201526064016107c8565b600354610d345760405162461bcd60e51b815260206004820152601860248201527f4e6f2076616c696461746f727320696e20636f756e63696c000000000000000060448201526064016107c8565b60018054906000610d4483611e13565b909155505060018054600081815260056020526040902090815590810180546001600160a01b0319163317905560038101610d80838583611e93565b50346004820155610d946201518042611ac3565b60078201556003546001546040805142602082015244918101919091526060810191909152600091906080016040516020818303038152906040528051906020012060001c610de39190611dff565b905060038181548110610df857610df8611f54565b60009182526020822001546002840180546001600160a01b0319166001600160a01b0390921691909117905560088054349290610e36908490611ac3565b9091555050600154600283015460078401546040513393927f8a5ed66a83326884c08a1335fab35b7837b82dc7d3434dfc7e4236ed7a6920ce92610e8c926001600160a01b03909216918a918a91349190611f93565b60405180910390a37ffc1c4ad174859d02f45fef76f1a0bf0b924620d34301b44988a9bb6392c787da34604051610eee9181526040602082018190526011908201527050726f706f73616c206f66666572696e6760781b606082015260800190565b60405180910390a150505050565b3360009081526004602052604090205460ff16610f4d5760405162461bcd60e51b815260206004820152600f60248201526e2737ba1030903b30b634b230ba37b960891b60448201526064016107c8565b6001600160a01b0380831660009081526006602052604090208054909116610fb25760405162461bcd60e51b815260206004820152601860248201527710d85b991a59185d1948191bd95cc81b9bdd08195e1a5cdd60421b60448201526064016107c8565b8060050154421115610ffc5760405162461bcd60e51b8152602060048201526013602482015272159bdd1a5b99c81c195c9a5bd908195b991959606a1b60448201526064016107c8565b33600090815260078201602052604090205460ff161561104e5760405162461bcd60e51b815260206004820152600d60248201526c105b1c9958591e481d9bdd1959609a1b60448201526064016107c8565b600681015460ff16156110965760405162461bcd60e51b815260206004820152601060248201526f105b1c9958591e481c995cdbdb1d995960821b60448201526064016107c8565b3360009081526007820160205260409020805460ff1916600117905581156110d4576003810180549060006110ca83611e13565b91905055506110ec565b6004810180549060006110e683611e13565b91905055505b604051821515815233906001600160a01b038516907f84cda52198943dc1894b927c3eebac06ed98e8a932063c3f90a13ceadfab68dd906020015b60405180910390a3505050565b6001600160a01b038083166000908152600660209081526040808320938516835260079093019052205460ff165b92915050565b6000546001600160a01b031633146111b45760405162461bcd60e51b815260206004820152600f60248201526e2737ba103a3432903337bab73232b960891b60448201526064016107c8565b6000600854116111fa5760405162461bcd60e51b81526020600482015260116024820152704e6f2074726561737572792066756e647360781b60448201526064016107c8565b6003546112395760405162461bcd60e51b815260206004820152600d60248201526c4e6f2076616c696461746f727360981b60448201526064016107c8565b60035460085460009161124b91611fcc565b600060088190559091505b600354811015610a875760006003828154811061127557611275611f54565b60009182526020822001546040516001600160a01b039091169185919081818185875af1925050503d80600081146112c9576040519150601f19603f3d011682016040523d82523d6000602084013e6112ce565b606091505b50509050806113185760405162461bcd60e51b815260206004820152601660248201527514995dd85c99081d1c985b9cd9995c8819985a5b195960521b60448201526064016107c8565b50600101611256565b600660205260009081526040902080546001820180546001600160a01b03909216929161134d90611daf565b80601f016020809104026020016040519081016040528092919081815260200182805461137990611daf565b80156113c65780601f1061139b576101008083540402835291602001916113c6565b820191906000526020600020905b8154815290600101906020018083116113a957829003601f168201915b505050600284015460038501546004860154600587015460069097015495969295919450925060ff8082169161010090041688565b6000546001600160a01b031633146114475760405162461bcd60e51b815260206004820152600f60248201526e2737ba103a3432903337bab73232b960891b60448201526064016107c8565b6001600160a01b03811660009081526004602052604090205460ff16156114a65760405162461bcd60e51b815260206004820152601360248201527220b63932b0b23c9030903b30b634b230ba37b960691b60448201526064016107c8565b6003546064116114ea5760405162461bcd60e51b815260206004820152600f60248201526e10dbdd5b98da5b081a5cc8199d5b1b608a1b60448201526064016107c8565b60038054600180820183557fc2575a0e9e593c00f959f8c92f12db2869c3395a3b0502d05e2516446f71f85b90910180546001600160a01b0319166001600160a01b038516908117909155600081815260046020908152604091829020805460ff191690941790935592549251928352917f3a7dcf9e5d72ff7a45d0ca1c97dad79292efb617df24d966d8ce300dd35bb8ea910160405180910390a250565b60078181548110610c7457600080fd5b606060038054806020026020016040519081016040528092919081815260200182805480156115f157602002820191906000526020600020905b81546001600160a01b031681526001909101906020018083116115d3575b5050505050905090565b3360009081526004602052604090205460ff1661164c5760405162461bcd60e51b815260206004820152600f60248201526e2737ba1030903b30b634b230ba37b960891b60448201526064016107c8565b600082815260056020526040812080549091036116a55760405162461bcd60e51b8152602060048201526017602482015276141c9bdc1bdcd85b08191bd95cc81b9bdd08195e1a5cdd604a1b60448201526064016107c8565b80600701544211156116ef5760405162461bcd60e51b8152602060048201526013602482015272159bdd1a5b99c81c195c9a5bd908195b991959606a1b60448201526064016107c8565b33600090815260098201602052604090205460ff16156117415760405162461bcd60e51b815260206004820152600d60248201526c105b1c9958591e481d9bdd1959609a1b60448201526064016107c8565b600881015460ff16156117965760405162461bcd60e51b815260206004820152601960248201527f50726f706f73616c20616c72656164792065786563757465640000000000000060448201526064016107c8565b3360009081526009820160205260409020805460ff1916600117905581156117d4576005810180549060006117ca83611e13565b91905055506117ec565b6006810180549060006117e683611e13565b91905055505b6040518215158152339084907fe71fcdac32df1877c1700e7bda2a03157e20993363a28fc35ac495cefc76e4d490602001611127565b68056bc75e2d6310000034146118885760405162461bcd60e51b815260206004820152602560248201527f417363656e73696f6e20666565206d7573742062652065786163746c79203130604482015264181026a7a760d91b60648201526084016107c8565b3360009081526004602052604090205460ff16156118de5760405162461bcd60e51b815260206004820152601360248201527220b63932b0b23c9030903b30b634b230ba37b960691b60448201526064016107c8565b6003546064116119225760405162461bcd60e51b815260206004820152600f60248201526e10dbdd5b98da5b081a5cc8199d5b1b608a1b60448201526064016107c8565b336000908152600660205260409020546001600160a01b03161561197a5760405162461bcd60e51b815260206004820152600f60248201526e105b1c9958591e48185c1c1b1a5959608a1b60448201526064016107c8565b33600081815260066020526040902080546001600160a01b0319169091178155600181016119a9838583611e93565b503460028201556119bd6201518042611ac3565b60058201908155600780546001810182556000919091527fa66cc928b5edb82af9bd49922954155ab7b0942694bea4ce44661d9a8736c6880180546001600160a01b0319163390811790915590546040517f1bf72f3dc694402de6eb100311a62f96f70ac75f17b3bc21aa785baf65eb169a91611a409187918791349190611fe0565b60405180910390a2505050565b606060078054806020026020016040519081016040528092919081815260200182805480156115f1576020028201919060005260206000209081546001600160a01b031681526001909101906020018083116115d3575050505050905090565b634e487b7160e01b600052601160045260246000fd5b8082018082111561116257611162611aad565b600060208284031215611ae857600080fd5b5035919050565b6000815180845260005b81811015611b1557602081850181015186830182015201611af9565b506000602082860101526020601f19601f83011685010191505092915050565b8a81526001600160a01b038a811660208301528916604082015261014060608201819052600090611b688382018b611aef565b6080840199909952505060a081019590955260c085019390935260e08401919091521515610100830152151561012090910152949350505050565b80356001600160a01b0381168114611bba57600080fd5b919050565b600060208284031215611bd157600080fd5b611bda82611ba3565b9392505050565b60008060208385031215611bf457600080fd5b823567ffffffffffffffff80821115611c0c57600080fd5b818501915085601f830112611c2057600080fd5b813581811115611c2f57600080fd5b866020828501011115611c4157600080fd5b60209290920196919550909350505050565b80358015158114611bba57600080fd5b60008060408385031215611c7657600080fd5b611c7f83611ba3565b9150611c8d60208401611c53565b90509250929050565b60008060408385031215611ca957600080fd5b611cb283611ba3565b9150611c8d60208401611ba3565b60008060408385031215611cd357600080fd5b82359150611c8d60208401611ba3565b6001600160a01b038916815261010060208201819052600090611d088382018b611aef565b604084019990995250506060810195909552608085019390935260a0840191909152151560c0830152151560e09091015292915050565b6020808252825182820181905260009190848201906040850190845b81811015611d805783516001600160a01b031683529284019291840191600101611d5b565b50909695505050505050565b60008060408385031215611d9f57600080fd5b82359150611c8d60208401611c53565b600181811c90821680611dc357607f821691505b602082108103611de357634e487b7160e01b600052602260045260246000fd5b50919050565b634e487b7160e01b600052601260045260246000fd5b600082611e0e57611e0e611de9565b500690565b600060018201611e2557611e25611aad565b5060010190565b634e487b7160e01b600052604160045260246000fd5b601f821115611e8e576000816000526020600020601f850160051c81016020861015611e6b5750805b601f850160051c820191505b81811015611e8a57828155600101611e77565b5050505b505050565b67ffffffffffffffff831115611eab57611eab611e2c565b611ebf83611eb98354611daf565b83611e42565b6000601f841160018114611ef35760008515611edb5750838201355b600019600387901b1c1916600186901b178355611f4d565b600083815260209020601f19861690835b82811015611f245786850135825560209485019460019092019101611f04565b5086821015611f415760001960f88860031b161c19848701351681555b505060018560011b0183555b5050505050565b634e487b7160e01b600052603260045260246000fd5b81835281816020850137506000828201602090810191909152601f909101601f19169091010190565b6001600160a01b0386168152608060208201819052600090611fb89083018688611f6a565b604083019490945250606001529392505050565b600082611fdb57611fdb611de9565b500490565b606081526000611ff4606083018688611f6a565b602083019490945250604001529291505056fea2646970667358221220fdf6983eb135854d09c85eda3e1eafdd55837a8c501a0a6b8da014ac9d3ed4c164736f6c63430008180033",
  "linkReferences": {},
  "deployedLinkReferences": {}
}