{
  "_format": "hh-sol-artifact-1",
  "contractName": "Moltiverse",
  "sourceName": "contracts/Moltiverse.sol",
  "abi": [
    {
      "anonymous": false,
      "inputs": [
        {
          "indexed": true,
          "internalType": "address",
          "name": "realmAddress",
          "type": "address"
        },
        {
          "indexed": false,
          "internalType": "string",
          "name": "name",
          "type": "string"
        },
        {
          "indexed": false,
          "internalType": "string",
          "name": "symbol",
          "type": "string"
        },
        {
          "indexed": true,
          "internalType": "address",
          "name": "creator",
          "type": "address"
        }
      ],
      "name": "RealmCreated",
      "type": "event"
    },
    {
      "inputs": [
        {
          "internalType": "string",
          "name": "name",
          "type": "string"
        },
        {
          "internalType": "string",
          "name": "symbol",
          "type": "string"
        },
        {
          "internalType": "string",
          "name": "manifesto",
          "type": "string"
        }
      ],
      "name": "createRealm",
      "outputs": [
        {
          "internalType": "address",
          "name": "",
          "type": "address"
        }
      ],
      "stateMutability": "nonpayable",
      "type": "function"
    },
    {
      "inputs": [],
      "name": "getRealmCount",
      "outputs": [
        {
          "internalType": "uint256",
          "name": "",
          "type": "uint256"
        }
      ],
      "stateMutability": "view",
      "type": "function"
    },
    {
      "inputs": [],
      "name": "getRealms",
      "outputs": [
        {
          "components": [
            {
              "internalType": "address",
              "name": "realmAddress",
              "type": "address"
            },
            {
              "internalType": "string",
              "name": "name",
              "type": "string"
            },
            {
              "internalType": "string",
              "name": "symbol",
              "type": "string"
            },
            {
              "internalType": "address",
              "name": "creator",
              "type": "address"
            },
            {
              "internalType": "uint256",
              "name": "createdAt",
              "type": "uint256"
            }
          ],
          "internalType": "struct Moltiverse.Realm[]",
          "name": "",
          "type": "tuple[]"
        }
      ],
      "stateMutability": "view",
      "type": "function"
    },
    {
      "inputs": [
        {
          "internalType": "uint256",
          "name": "",
          "type": "uint256"
        }
      ],
      "name": "realms",
      "outputs": [
        {
          "internalType": "address",
          "name": "realmAddress",
          "type": "address"
        },
        {
          "internalType": "string",
          "name": "name",
          "type": "string"
        },
        {
          "internalType": "string",
          "name": "symbol",
          "type": "string"
        },
        {
          "internalType": "address",
          "name": "creator",
          "type": "address"
        },
        {
          "internalType": "uint256",
          "name": "createdAt",
          "type": "uint256"
        }
      ],
      "stateMutability": "view",
      "type": "function"
    }
  ],
  "bytecode": "0x608060405234801561001057600080fd5b50611d65806100206000396000f3fe60806040523480156200001157600080fd5b5060043610620000525760003560e01c8063301194d614620000575780636dd1c790146200008a5780637050b57b14620000ba578063b4905cc914620000d3575b600080fd5b6200006e62000068366004620005bd565b620000e5565b604051620000819594939291906200061f565b60405180910390f35b620000a16200009b36600462000718565b6200025c565b6040516001600160a01b03909116815260200162000081565b620000c4620003e1565b604051620000819190620007aa565b60005460405190815260200162000081565b60008181548110620000f657600080fd5b6000918252602090912060059091020180546001820180546001600160a01b0390921693509062000127906200086b565b80601f016020809104026020016040519081016040528092919081815260200182805462000155906200086b565b8015620001a65780601f106200017a57610100808354040283529160200191620001a6565b820191906000526020600020905b8154815290600101906020018083116200018857829003601f168201915b505050505090806002018054620001bd906200086b565b80601f0160208091040260200160405190810160405280929190818152602001828054620001eb906200086b565b80156200023c5780601f1062000210576101008083540402835291602001916200023c565b820191906000526020600020905b8154815290600101906020018083116200021e57829003601f168201915b50505050600383015460049093015491926001600160a01b031691905085565b600080848484336040516200027190620005af565b620002809493929190620008a7565b604051809103906000f0801580156200029d573d6000803e3d6000fd5b506040805160a0810182526001600160a01b038381168252602082018981529282018890523360608301524260808301526000805460018101825590805282517f290decd9548b62a8d60345a988386fc84ba6bc95484008f6362f93160ef3e563600590920291820180546001600160a01b031916919093161782559251939450909290917f290decd9548b62a8d60345a988386fc84ba6bc95484008f6362f93160ef3e564019062000351908262000955565b506040820151600282019062000368908262000955565b5060608201516003820180546001600160a01b0319166001600160a01b0392831617905560809092015160049091015560405133918316907f405b0c9942be594ddd2d425a1742faa12d4b80dfddaa8de375fa6046f19a8eff90620003d1908990899062000a22565b60405180910390a3949350505050565b60606000805480602002602001604051908101604052809291908181526020016000905b82821015620005a65760008481526020908190206040805160a081019091526005850290910180546001600160a01b03168252600181018054929391929184019162000451906200086b565b80601f01602080910402602001604051908101604052809291908181526020018280546200047f906200086b565b8015620004d05780601f10620004a457610100808354040283529160200191620004d0565b820191906000526020600020905b815481529060010190602001808311620004b257829003601f168201915b50505050508152602001600282018054620004eb906200086b565b80601f016020809104026020016040519081016040528092919081815260200182805462000519906200086b565b80156200056a5780601f106200053e576101008083540402835291602001916200056a565b820191906000526020600020905b8154815290600101906020018083116200054c57829003601f168201915b505050918352505060038201546001600160a01b0316602080830191909152600490920154604090910152908252600192909201910162000405565b50505050905090565b6112db8062000a5583390190565b600060208284031215620005d057600080fd5b5035919050565b6000815180845260005b81811015620005ff57602081850181015186830182015201620005e1565b506000602082860101526020601f19601f83011685010191505092915050565b600060018060a01b03808816835260a060208401526200064360a0840188620005d7565b8381036040850152620006578188620005d7565b9590911660608401525050608001529392505050565b634e487b7160e01b600052604160045260246000fd5b600082601f8301126200069557600080fd5b813567ffffffffffffffff80821115620006b357620006b36200066d565b604051601f8301601f19908116603f01168101908282118183101715620006de57620006de6200066d565b81604052838152866020858801011115620006f857600080fd5b836020870160208301376000602085830101528094505050505092915050565b6000806000606084860312156200072e57600080fd5b833567ffffffffffffffff808211156200074757600080fd5b620007558783880162000683565b945060208601359150808211156200076c57600080fd5b6200077a8783880162000683565b935060408601359150808211156200079157600080fd5b50620007a08682870162000683565b9150509250925092565b600060208083018184528085518083526040925060408601915060408160051b87010184880160005b838110156200085d57888303603f19018552815180516001600160a01b0390811685528882015160a08a870181905291906200081283880182620005d7565b925050888301518683038a8801526200082c8382620005d7565b60608581015190931692880192909252506080928301519290950191909152509386019390860190600101620007d3565b509098975050505050505050565b600181811c908216806200088057607f821691505b602082108103620008a157634e487b7160e01b600052602260045260246000fd5b50919050565b608081526000620008bc6080830187620005d7565b8281036020840152620008d08187620005d7565b90508281036040840152620008e68186620005d7565b91505060018060a01b038316606083015295945050505050565b601f82111562000950576000816000526020600020601f850160051c810160208610156200092b5750805b601f850160051c820191505b818110156200094c5782815560010162000937565b5050505b505050565b815167ffffffffffffffff8111156200097257620009726200066d565b6200098a816200098384546200086b565b8462000900565b602080601f831160018114620009c25760008415620009a95750858301515b600019600386901b1c1916600185901b1785556200094c565b600085815260208120601f198616915b82811015620009f357888601518255948401946001909101908401620009d2565b508582101562000a125787850151600019600388901b60f8161c191681555b5050505050600190811b01905550565b60408152600062000a376040830185620005d7565b828103602084015262000a4b8185620005d7565b9594505050505056fe60806040523480156200001157600080fd5b50604051620012db380380620012db83398101604081905262000034916200035f565b8084846003620000458382620004a3565b506004620000548282620004a3565b5050506001600160a01b0381166200008757604051631e4fbdf760e01b8152600060048201526024015b60405180910390fd5b6200009281620000d4565b506006620000a18382620004a3565b50620000ca81620000b56012600a62000684565b620000c490620186a06200069c565b62000126565b50505050620006cc565b600580546001600160a01b038381166001600160a01b0319831681179093556040519116919082907f8be0079c531659141344cd1fd0a4f28419497f9722a3daafe3b4186f6b6457e090600090a35050565b6001600160a01b038216620001525760405163ec442f0560e01b8152600060048201526024016200007e565b620001606000838362000164565b5050565b6001600160a01b03831662000193578060026000828254620001879190620006b6565b90915550620002079050565b6001600160a01b03831660009081526020819052604090205481811015620001e85760405163391434e360e21b81526001600160a01b038516600482015260248101829052604481018390526064016200007e565b6001600160a01b03841660009081526020819052604090209082900390555b6001600160a01b038216620002255760028054829003905562000244565b6001600160a01b03821660009081526020819052604090208054820190555b816001600160a01b0316836001600160a01b03167fddf252ad1be2c89b69c2b068fc378daa952ba7f163c4a11628f55a4df523b3ef836040516200028a91815260200190565b60405180910390a3505050565b634e487b7160e01b600052604160045260246000fd5b600082601f830112620002bf57600080fd5b81516001600160401b0380821115620002dc57620002dc62000297565b604051601f8301601f19908116603f0116810190828211818310171562000307576200030762000297565b81604052838152602092508660208588010111156200032557600080fd5b600091505b838210156200034957858201830151818301840152908201906200032a565b6000602085830101528094505050505092915050565b600080600080608085870312156200037657600080fd5b84516001600160401b03808211156200038e57600080fd5b6200039c88838901620002ad565b95506020870151915080821115620003b357600080fd5b620003c188838901620002ad565b94506040870151915080821115620003d857600080fd5b50620003e787828801620002ad565b606087015190935090506001600160a01b03811681146200040757600080fd5b939692955090935050565b600181811c908216806200042757607f821691505b6020821081036200044857634e487b7160e01b600052602260045260246000fd5b50919050565b601f8211156200049e576000816000526020600020601f850160051c81016020861015620004795750805b601f850160051c820191505b818110156200049a5782815560010162000485565b5050505b505050565b81516001600160401b03811115620004bf57620004bf62000297565b620004d781620004d0845462000412565b846200044e565b602080601f8311600181146200050f5760008415620004f65750858301515b600019600386901b1c1916600185901b1785556200049a565b600085815260208120601f198616915b8281101562000540578886015182559484019460019091019084016200051f565b50858210156200055f5787850151600019600388901b60f8161c191681555b5050505050600190811b01905550565b634e487b7160e01b600052601160045260246000fd5b600181815b80851115620005c6578160001904821115620005aa57620005aa6200056f565b80851615620005b857918102915b93841c93908002906200058a565b509250929050565b600082620005df575060016200067e565b81620005ee575060006200067e565b8160018114620006075760028114620006125762000632565b60019150506200067e565b60ff8411156200062657620006266200056f565b50506001821b6200067e565b5060208310610133831016604e8410600b841016171562000657575081810a6200067e565b62000663838362000585565b80600019048211156200067a576200067a6200056f565b0290505b92915050565b60006200069560ff841683620005ce565b9392505050565b80820281158282048414176200067e576200067e6200056f565b808201808211156200067e576200067e6200056f565b610bff80620006dc6000396000f3fe608060405234801561001057600080fd5b50600436106101005760003560e01c8063715018a611610097578063bdb01a3811610066578063bdb01a3814610209578063dd62ed3e1461021c578063e2f3dce014610255578063f2fde38b1461025d57600080fd5b8063715018a6146101cb5780638da5cb5b146101d357806395d89b41146101ee578063a9059cbb146101f657600080fd5b8063313ce567116100d3578063313ce5671461016b57806340c10f191461017a57806342966c681461018f57806370a08231146101a257600080fd5b806306fdde0314610105578063095ea7b31461012357806318160ddd1461014657806323b872dd14610158575b600080fd5b61010d610270565b60405161011a9190610858565b60405180910390f35b6101366101313660046108c3565b610302565b604051901515815260200161011a565b6002545b60405190815260200161011a565b6101366101663660046108ed565b61031c565b6040516012815260200161011a565b61018d6101883660046108c3565b610340565b005b61018d61019d366004610929565b610356565b61014a6101b0366004610942565b6001600160a01b031660009081526020819052604090205490565b61018d61036b565b6005546040516001600160a01b03909116815260200161011a565b61010d61037f565b6101366102043660046108c3565b61038e565b61018d61021736600461097a565b61039c565b61014a61022a366004610a2b565b6001600160a01b03918216600090815260016020908152604080832093909416825291909152205490565b61010d6103b0565b61018d61026b366004610942565b61043e565b60606003805461027f90610a5e565b80601f01602080910402602001604051908101604052809291908181526020018280546102ab90610a5e565b80156102f85780601f106102cd576101008083540402835291602001916102f8565b820191906000526020600020905b8154815290600101906020018083116102db57829003601f168201915b5050505050905090565b60003361031081858561047e565b60019150505b92915050565b60003361032a858285610490565b61033585858561050f565b506001949350505050565b61034861056e565b610352828261059b565b5050565b61035e61056e565b61036833826105d1565b50565b61037361056e565b61037d6000610607565b565b60606004805461027f90610a5e565b60003361031081858561050f565b6103a461056e565b60066103528282610ae8565b600680546103bd90610a5e565b80601f01602080910402602001604051908101604052809291908181526020018280546103e990610a5e565b80156104365780601f1061040b57610100808354040283529160200191610436565b820191906000526020600020905b81548152906001019060200180831161041957829003601f168201915b505050505081565b61044661056e565b6001600160a01b03811661047557604051631e4fbdf760e01b8152600060048201526024015b60405180910390fd5b61036881610607565b61048b8383836001610659565b505050565b6001600160a01b0383811660009081526001602090815260408083209386168352929052205460001981101561050957818110156104fa57604051637dc7a0d960e11b81526001600160a01b0384166004820152602481018290526044810183905260640161046c565b61050984848484036000610659565b50505050565b6001600160a01b03831661053957604051634b637e8f60e11b81526000600482015260240161046c565b6001600160a01b0382166105635760405163ec442f0560e01b81526000600482015260240161046c565b61048b83838361072e565b6005546001600160a01b0316331461037d5760405163118cdaa760e01b815233600482015260240161046c565b6001600160a01b0382166105c55760405163ec442f0560e01b81526000600482015260240161046c565b6103526000838361072e565b6001600160a01b0382166105fb57604051634b637e8f60e11b81526000600482015260240161046c565b6103528260008361072e565b600580546001600160a01b038381166001600160a01b0319831681179093556040519116919082907f8be0079c531659141344cd1fd0a4f28419497f9722a3daafe3b4186f6b6457e090600090a35050565b6001600160a01b0384166106835760405163e602df0560e01b81526000600482015260240161046c565b6001600160a01b0383166106ad57604051634a1406b160e11b81526000600482015260240161046c565b6001600160a01b038085166000908152600160209081526040808320938716835292905220829055801561050957826001600160a01b0316846001600160a01b03167f8c5be1e5ebec7d5bd14f71427d1e84f3dd0314c0f7b2291e5b200ac8c7c3b9258460405161072091815260200190565b60405180910390a350505050565b6001600160a01b03831661075957806002600082825461074e9190610ba8565b909155506107cb9050565b6001600160a01b038316600090815260208190526040902054818110156107ac5760405163391434e360e21b81526001600160a01b0385166004820152602481018290526044810183905260640161046c565b6001600160a01b03841660009081526020819052604090209082900390555b6001600160a01b0382166107e757600280548290039055610806565b6001600160a01b03821660009081526020819052604090208054820190555b816001600160a01b0316836001600160a01b03167fddf252ad1be2c89b69c2b068fc378daa952ba7f163c4a11628f55a4df523b3ef8360405161084b91815260200190565b60405180910390a3505050565b60006020808352835180602085015260005b818110156108865785810183015185820160400152820161086a565b506000604082860101526040601f19601f8301168501019250505092915050565b80356001600160a01b03811681146108be57600080fd5b919050565b600080604083850312156108d657600080fd5b6108df836108a7565b946020939093013593505050565b60008060006060848603121561090257600080fd5b61090b846108a7565b9250610919602085016108a7565b9150604084013590509250925092565b60006020828403121561093b57600080fd5b5035919050565b60006020828403121561095457600080fd5b61095d826108a7565b9392505050565b634e487b7160e01b600052604160045260246000fd5b60006020828403121561098c57600080fd5b813567ffffffffffffffff808211156109a457600080fd5b818401915084601f8301126109b857600080fd5b8135818111156109ca576109ca610964565b604051601f8201601f19908116603f011681019083821181831017156109f2576109f2610964565b81604052828152876020848701011115610a0b57600080fd5b826020860160208301376000928101602001929092525095945050505050565b60008060408385031215610a3e57600080fd5b610a47836108a7565b9150610a55602084016108a7565b90509250929050565b600181811c90821680610a7257607f821691505b602082108103610a9257634e487b7160e01b600052602260045260246000fd5b50919050565b601f82111561048b576000816000526020600020601f850160051c81016020861015610ac15750805b601f850160051c820191505b81811015610ae057828155600101610acd565b505050505050565b815167ffffffffffffffff811115610b0257610b02610964565b610b1681610b108454610a5e565b84610a98565b602080601f831160018114610b4b5760008415610b335750858301515b600019600386901b1c1916600185901b178555610ae0565b600085815260208120601f198616915b82811015610b7a57888601518255948401946001909101908401610b5b565b5085821015610b985787850151600019600388901b60f8161c191681555b5050505050600190811b01905550565b8082018082111561031657634e487b7160e01b600052601160045260246000fdfea26469706673582212201d4f04207598b93a585c3d7d96227d8f71ef0fc9cac4ebdc7fcb01f2d0ad205c64736f6c63430008180033a2646970667358221220917f3a8a4b7edae6836c84d2e2504a5c6b18fa212da8deeed6782f9133047d9364736f6c63430008180033",
  "linkReferences": {},
  "deployedLinkReferences": {}
}